{
  "abi": [
    {
      "inputs": [
        {
          "internalType": "uint256",
          "name": "",
          "type": "uint256"
        }
      ],
      "name": "balances",
      "outputs": [
        {
          "internalType": "address",
          "name": "",
          "type": "address"
        }
      ],
      "stateMutability": "view",
      "type": "function"
    },
    {
      "inputs": [],
      "name": "currID",
      "outputs": [
        {
          "internalType": "uint256",
          "name": "",
          "type": "uint256"
        }
      ],
      "stateMutability": "view",
      "type": "function"
    },
    {
      "inputs": [],
      "name": "mint",
      "outputs": [],
      "stateMutability": "payable",
      "type": "function"
    },
    {
      "inputs": [
        {
          "internalType": "uint256",
          "name": "tokenID",
          "type": "uint256"
        }
      ],
      "name": "ownerOf",
      "outputs": [
        {
          "internalType": "address",
          "name": "",
          "type": "address"
        }
      ],
      "stateMutability": "view",
      "type": "function"
    },
    {
      "inputs": [
        {
          "internalType": "uint256",
          "name": "tokenID",
          "type": "uint256"
        },
        {
          "internalType": "address",
          "name": "to",
          "type": "address"
        }
      ],
      "name": "transfer",
      "outputs": [],
      "stateMutability": "nonpayable",
      "type": "function"
    }
  ],
  "bytecode": {
    "object": "0x6080604052600060015534801561001557600080fd5b50610294806100256000396000f3fe60806040526004361061004a5760003560e01c80631249c58b1461004f5780633e794dc3146100595780634903b0d1146100825780636352211e146100d0578063b7760c8f14610106575b600080fd5b610057610126565b005b34801561006557600080fd5b5061006f60015481565b6040519081526020015b60405180910390f35b34801561008e57600080fd5b506100b861009d3660046101e3565b6000602081905290815260409020546001600160a01b031681565b6040516001600160a01b039091168152602001610079565b3480156100dc57600080fd5b506100b86100eb3660046101e3565b6000908152602081905260409020546001600160a01b031690565b34801561011257600080fd5b506100576101213660046101fc565b61016d565b610134565b60405180910390fd5b60018054600090815260208190526040812080546001600160a01b031916331790558154829190610166908390610238565b9091555050565b6001600160a01b0381166101b55760405162461bcd60e51b815260206004820152600f60248201526e496e76616c6964206164647265737360881b604482015260640161012b565b60009182526020829052604090912080546001600160a01b0319166001600160a01b03909216919091179055565b6000602082840312156101f557600080fd5b5035919050565b6000806040838503121561020f57600080fd5b8235915060208301356001600160a01b038116811461022d57600080fd5b809150509250929050565b6000821982111561025957634e487b7160e01b600052601160045260246000fd5b50019056fea26469706673582212200972755033b57d5886c36cfd6bf44821c6990592ccdb4a766f588ac46dc9165a64736f6c634300080d0033",
    "linkReferences": {}
  },
  "methodIdentifiers": {
    "balances(uint256)": "4903b0d1",
    "currID()": "3e794dc3",
    "mint()": "1249c58b",
    "ownerOf(uint256)": "6352211e",
    "transfer(uint256,address)": "b7760c8f"
  },
  "id": 0
}