{
  "abi": [
    {
      "inputs": [
        {
          "internalType": "string",
          "name": "_name",
          "type": "string"
        },
        {
          "internalType": "string",
          "name": "_symbol",
          "type": "string"
        },
        {
          "internalType": "string",
          "name": "_initBaseURI",
          "type": "string"
        }
      ],
      "stateMutability": "nonpayable",
      "type": "constructor"
    },
    {
      "anonymous": false,
      "inputs": [
        {
          "indexed": true,
          "internalType": "address",
          "name": "owner",
          "type": "address"
        },
        {
          "indexed": true,
          "internalType": "address",
          "name": "approved",
          "type": "address"
        },
        {
          "indexed": true,
          "internalType": "uint256",
          "name": "tokenId",
          "type": "uint256"
        }
      ],
      "name": "Approval",
      "type": "event"
    },
    {
      "anonymous": false,
      "inputs": [
        {
          "indexed": true,
          "internalType": "address",
          "name": "owner",
          "type": "address"
        },
        {
          "indexed": true,
          "internalType": "address",
          "name": "operator",
          "type": "address"
        },
        {
          "indexed": false,
          "internalType": "bool",
          "name": "approved",
          "type": "bool"
        }
      ],
      "name": "ApprovalForAll",
      "type": "event"
    },
    {
      "anonymous": false,
      "inputs": [
        {
          "indexed": true,
          "internalType": "address",
          "name": "previousOwner",
          "type": "address"
        },
        {
          "indexed": true,
          "internalType": "address",
          "name": "newOwner",
          "type": "address"
        }
      ],
      "name": "OwnershipTransferred",
      "type": "event"
    },
    {
      "anonymous": false,
      "inputs": [
        {
          "indexed": true,
          "internalType": "address",
          "name": "from",
          "type": "address"
        },
        {
          "indexed": true,
          "internalType": "address",
          "name": "to",
          "type": "address"
        },
        {
          "indexed": true,
          "internalType": "uint256",
          "name": "tokenId",
          "type": "uint256"
        }
      ],
      "name": "Transfer",
      "type": "event"
    },
    {
      "inputs": [
        {
          "internalType": "address",
          "name": "to",
          "type": "address"
        },
        {
          "internalType": "uint256",
          "name": "tokenId",
          "type": "uint256"
        }
      ],
      "name": "approve",
      "outputs": [],
      "stateMutability": "nonpayable",
      "type": "function"
    },
    {
      "inputs": [
        {
          "internalType": "address",
          "name": "owner",
          "type": "address"
        }
      ],
      "name": "balanceOf",
      "outputs": [
        {
          "internalType": "uint256",
          "name": "",
          "type": "uint256"
        }
      ],
      "stateMutability": "view",
      "type": "function"
    },
    {
      "inputs": [],
      "name": "baseExtension",
      "outputs": [
        {
          "internalType": "string",
          "name": "",
          "type": "string"
        }
      ],
      "stateMutability": "view",
      "type": "function"
    },
    {
      "inputs": [],
      "name": "cost",
      "outputs": [
        {
          "internalType": "uint256",
          "name": "",
          "type": "uint256"
        }
      ],
      "stateMutability": "view",
      "type": "function"
    },
    {
      "inputs": [
        {
          "internalType": "uint256",
          "name": "tokenId",
          "type": "uint256"
        }
      ],
      "name": "getApproved",
      "outputs": [
        {
          "internalType": "address",
          "name": "",
          "type": "address"
        }
      ],
      "stateMutability": "view",
      "type": "function"
    },
    {
      "inputs": [
        {
          "internalType": "address",
          "name": "owner",
          "type": "address"
        },
        {
          "internalType": "address",
          "name": "operator",
          "type": "address"
        }
      ],
      "name": "isApprovedForAll",
      "outputs": [
        {
          "internalType": "bool",
          "name": "",
          "type": "bool"
        }
      ],
      "stateMutability": "view",
      "type": "function"
    },
    {
      "inputs": [],
      "name": "maxMintAmount",
      "outputs": [
        {
          "internalType": "uint256",
          "name": "",
          "type": "uint256"
        }
      ],
      "stateMutability": "view",
      "type": "function"
    },
    {
      "inputs": [],
      "name": "maxSupply",
      "outputs": [
        {
          "internalType": "uint256",
          "name": "",
          "type": "uint256"
        }
      ],
      "stateMutability": "view",
      "type": "function"
    },
    {
      "inputs": [
        {
          "internalType": "uint256",
          "name": "_mintAmount",
          "type": "uint256"
        }
      ],
      "name": "mint",
      "outputs": [],
      "stateMutability": "payable",
      "type": "function"
    },
    {
      "inputs": [],
      "name": "name",
      "outputs": [
        {
          "internalType": "string",
          "name": "",
          "type": "string"
        }
      ],
      "stateMutability": "view",
      "type": "function"
    },
    {
      "inputs": [],
      "name": "owner",
      "outputs": [
        {
          "internalType": "address",
          "name": "",
          "type": "address"
        }
      ],
      "stateMutability": "view",
      "type": "function"
    },
    {
      "inputs": [
        {
          "internalType": "uint256",
          "name": "tokenId",
          "type": "uint256"
        }
      ],
      "name": "ownerOf",
      "outputs": [
        {
          "internalType": "address",
          "name": "",
          "type": "address"
        }
      ],
      "stateMutability": "view",
      "type": "function"
    },
    {
      "inputs": [
        {
          "internalType": "bool",
          "name": "_state",
          "type": "bool"
        }
      ],
      "name": "pause",
      "outputs": [],
      "stateMutability": "nonpayable",
      "type": "function"
    },
    {
      "inputs": [],
      "name": "paused",
      "outputs": [
        {
          "internalType": "bool",
          "name": "",
          "type": "bool"
        }
      ],
      "stateMutability": "view",
      "type": "function"
    },
    {
      "inputs": [],
      "name": "renounceOwnership",
      "outputs": [],
      "stateMutability": "nonpayable",
      "type": "function"
    },
    {
      "inputs": [
        {
          "internalType": "address",
          "name": "from",
          "type": "address"
        },
        {
          "internalType": "address",
          "name": "to",
          "type": "address"
        },
        {
          "internalType": "uint256",
          "name": "tokenId",
          "type": "uint256"
        }
      ],
      "name": "safeTransferFrom",
      "outputs": [],
      "stateMutability": "nonpayable",
      "type": "function"
    },
    {
      "inputs": [
        {
          "internalType": "address",
          "name": "from",
          "type": "address"
        },
        {
          "internalType": "address",
          "name": "to",
          "type": "address"
        },
        {
          "internalType": "uint256",
          "name": "tokenId",
          "type": "uint256"
        },
        {
          "internalType": "bytes",
          "name": "data",
          "type": "bytes"
        }
      ],
      "name": "safeTransferFrom",
      "outputs": [],
      "stateMutability": "nonpayable",
      "type": "function"
    },
    {
      "inputs": [
        {
          "internalType": "address",
          "name": "operator",
          "type": "address"
        },
        {
          "internalType": "bool",
          "name": "approved",
          "type": "bool"
        }
      ],
      "name": "setApprovalForAll",
      "outputs": [],
      "stateMutability": "nonpayable",
      "type": "function"
    },
    {
      "inputs": [
        {
          "internalType": "string",
          "name": "_newBaseExtension",
          "type": "string"
        }
      ],
      "name": "setBaseExtension",
      "outputs": [],
      "stateMutability": "nonpayable",
      "type": "function"
    },
    {
      "inputs": [
        {
          "internalType": "string",
          "name": "_newBaseURI",
          "type": "string"
        }
      ],
      "name": "setBaseURI",
      "outputs": [],
      "stateMutability": "nonpayable",
      "type": "function"
    },
    {
      "inputs": [
        {
          "internalType": "uint256",
          "name": "_newCost",
          "type": "uint256"
        }
      ],
      "name": "setCost",
      "outputs": [],
      "stateMutability": "nonpayable",
      "type": "function"
    },
    {
      "inputs": [
        {
          "internalType": "uint256",
          "name": "_newmaxMintAmount",
          "type": "uint256"
        }
      ],
      "name": "setmaxMintAmount",
      "outputs": [],
      "stateMutability": "nonpayable",
      "type": "function"
    },
    {
      "inputs": [
        {
          "internalType": "bytes4",
          "name": "interfaceId",
          "type": "bytes4"
        }
      ],
      "name": "supportsInterface",
      "outputs": [
        {
          "internalType": "bool",
          "name": "",
          "type": "bool"
        }
      ],
      "stateMutability": "view",
      "type": "function"
    },
    {
      "inputs": [],
      "name": "symbol",
      "outputs": [
        {
          "internalType": "string",
          "name": "",
          "type": "string"
        }
      ],
      "stateMutability": "view",
      "type": "function"
    },
    {
      "inputs": [
        {
          "internalType": "uint256",
          "name": "index",
          "type": "uint256"
        }
      ],
      "name": "tokenByIndex",
      "outputs": [
        {
          "internalType": "uint256",
          "name": "",
          "type": "uint256"
        }
      ],
      "stateMutability": "view",
      "type": "function"
    },
    {
      "inputs": [
        {
          "internalType": "address",
          "name": "owner",
          "type": "address"
        },
        {
          "internalType": "uint256",
          "name": "index",
          "type": "uint256"
        }
      ],
      "name": "tokenOfOwnerByIndex",
      "outputs": [
        {
          "internalType": "uint256",
          "name": "",
          "type": "uint256"
        }
      ],
      "stateMutability": "view",
      "type": "function"
    },
    {
      "inputs": [
        {
          "internalType": "uint256",
          "name": "tokenId",
          "type": "uint256"
        }
      ],
      "name": "tokenURI",
      "outputs": [
        {
          "internalType": "string",
          "name": "",
          "type": "string"
        }
      ],
      "stateMutability": "view",
      "type": "function"
    },
    {
      "inputs": [],
      "name": "totalSupply",
      "outputs": [
        {
          "internalType": "uint256",
          "name": "",
          "type": "uint256"
        }
      ],
      "stateMutability": "view",
      "type": "function"
    },
    {
      "inputs": [
        {
          "internalType": "address",
          "name": "from",
          "type": "address"
        },
        {
          "internalType": "address",
          "name": "to",
          "type": "address"
        },
        {
          "internalType": "uint256",
          "name": "tokenId",
          "type": "uint256"
        }
      ],
      "name": "transferFrom",
      "outputs": [],
      "stateMutability": "nonpayable",
      "type": "function"
    },
    {
      "inputs": [
        {
          "internalType": "address",
          "name": "newOwner",
          "type": "address"
        }
      ],
      "name": "transferOwnership",
      "outputs": [],
      "stateMutability": "nonpayable",
      "type": "function"
    },
    {
      "inputs": [
        {
          "internalType": "address",
          "name": "_owner",
          "type": "address"
        }
      ],
      "name": "walletOfOwner",
      "outputs": [
        {
          "internalType": "uint256[]",
          "name": "",
          "type": "uint256[]"
        }
      ],
      "stateMutability": "view",
      "type": "function"
    },
    {
      "inputs": [],
      "name": "withdraw",
      "outputs": [],
      "stateMutability": "payable",
      "type": "function"
    }
  ],
  "bytecode": {
    "object": "0x60c06040526005608081905264173539b7b760d91b60a09081526200002891600c9190620001b2565b5066b1a2bc2ec50000600d556064600e556001600f556010805460ff191690553480156200005557600080fd5b50604051620023d3380380620023d3833981016040819052620000789162000325565b82518390839062000091906000906020850190620001b2565b508051620000a7906001906020840190620001b2565b505050620000c4620000be620000d860201b60201c565b620000dc565b620000cf816200012e565b505050620003f2565b3390565b600a80546001600160a01b038381166001600160a01b0319831681179093556040519116919082907f8be0079c531659141344cd1fd0a4f28419497f9722a3daafe3b4186f6b6457e090600090a35050565b6200013862000151565b80516200014d90600b906020840190620001b2565b5050565b600a546001600160a01b03163314620001b05760405162461bcd60e51b815260206004820181905260248201527f4f776e61626c653a2063616c6c6572206973206e6f7420746865206f776e6572604482015260640160405180910390fd5b565b828054620001c090620003b6565b90600052602060002090601f016020900481019282620001e457600085556200022f565b82601f10620001ff57805160ff19168380011785556200022f565b828001600101855582156200022f579182015b828111156200022f57825182559160200191906001019062000212565b506200023d92915062000241565b5090565b5b808211156200023d576000815560010162000242565b634e487b7160e01b600052604160045260246000fd5b600082601f8301126200028057600080fd5b81516001600160401b03808211156200029d576200029d62000258565b604051601f8301601f19908116603f01168101908282118183101715620002c857620002c862000258565b81604052838152602092508683858801011115620002e557600080fd5b600091505b83821015620003095785820183015181830184015290820190620002ea565b838211156200031b5760008385830101525b9695505050505050565b6000806000606084860312156200033b57600080fd5b83516001600160401b03808211156200035357600080fd5b62000361878388016200026e565b945060208601519150808211156200037857600080fd5b62000386878388016200026e565b935060408601519150808211156200039d57600080fd5b50620003ac868287016200026e565b9150509250925092565b600181811c90821680620003cb57607f821691505b602082108103620003ec57634e487b7160e01b600052602260045260246000fd5b50919050565b611fd180620004026000396000f3fe6080604052600436106101e35760003560e01c80635c975abb11610102578063a22cb46511610095578063d5abeb0111610064578063d5abeb0114610547578063da3ef23f1461055d578063e985e9c51461057d578063f2fde38b146105c657600080fd5b8063a22cb465146104d2578063b88d4fde146104f2578063c668286214610512578063c87b56dd1461052757600080fd5b80637f00c7a6116100d15780637f00c7a61461046c5780638da5cb5b1461048c57806395d89b41146104aa578063a0712d68146104bf57600080fd5b80635c975abb146103fd5780636352211e1461041757806370a0823114610437578063715018a61461045757600080fd5b806323b872dd1161017a578063438b630011610149578063438b63001461037057806344a0d68a1461039d5780634f6ccce7146103bd57806355f804b3146103dd57600080fd5b806323b872dd146103085780632f745c59146103285780633ccfd60b1461034857806342842e0e1461035057600080fd5b8063095ea7b3116101b6578063095ea7b31461029957806313faede6146102b957806318160ddd146102dd578063239c70ae146102f257600080fd5b806301ffc9a7146101e857806302329a291461021d57806306fdde031461023f578063081812fc14610261575b600080fd5b3480156101f457600080fd5b50610208610203366004611a2a565b6105e6565b60405190151581526020015b60405180910390f35b34801561022957600080fd5b5061023d610238366004611a5c565b610611565b005b34801561024b57600080fd5b5061025461062c565b6040516102149190611ac4565b34801561026d57600080fd5b5061028161027c366004611ad7565b6106be565b6040516001600160a01b039091168152602001610214565b3480156102a557600080fd5b5061023d6102b4366004611b07565b6106e5565b3480156102c557600080fd5b506102cf600d5481565b604051908152602001610214565b3480156102e957600080fd5b506008546102cf565b3480156102fe57600080fd5b506102cf600f5481565b34801561031457600080fd5b5061023d610323366004611b31565b6107ff565b34801561033457600080fd5b506102cf610343366004611b07565b610830565b61023d6108c6565b34801561035c57600080fd5b5061023d61036b366004611b31565b610942565b34801561037c57600080fd5b5061039061038b366004611b6d565b61095d565b6040516102149190611b88565b3480156103a957600080fd5b5061023d6103b8366004611ad7565b6109ff565b3480156103c957600080fd5b506102cf6103d8366004611ad7565b610a0c565b3480156103e957600080fd5b5061023d6103f8366004611c58565b610a9f565b34801561040957600080fd5b506010546102089060ff1681565b34801561042357600080fd5b50610281610432366004611ad7565b610abe565b34801561044357600080fd5b506102cf610452366004611b6d565b610b1e565b34801561046357600080fd5b5061023d610ba4565b34801561047857600080fd5b5061023d610487366004611ad7565b610bb8565b34801561049857600080fd5b50600a546001600160a01b0316610281565b3480156104b657600080fd5b50610254610bc5565b61023d6104cd366004611ad7565b610bd4565b3480156104de57600080fd5b5061023d6104ed366004611ca1565b610c81565b3480156104fe57600080fd5b5061023d61050d366004611cd4565b610c8c565b34801561051e57600080fd5b50610254610cc4565b34801561053357600080fd5b50610254610542366004611ad7565b610d52565b34801561055357600080fd5b506102cf600e5481565b34801561056957600080fd5b5061023d610578366004611c58565b610de2565b34801561058957600080fd5b50610208610598366004611d50565b6001600160a01b03918216600090815260056020908152604080832093909416825291909152205460ff1690565b3480156105d257600080fd5b5061023d6105e1366004611b6d565b610dfd565b60006001600160e01b0319821663780e9d6360e01b148061060b575061060b82610e73565b92915050565b610619610ec3565b6010805460ff1916911515919091179055565b60606000805461063b90611d7a565b80601f016020809104026020016040519081016040528092919081815260200182805461066790611d7a565b80156106b45780601f10610689576101008083540402835291602001916106b4565b820191906000526020600020905b81548152906001019060200180831161069757829003601f168201915b5050505050905090565b60006106c982610f1d565b506000908152600460205260409020546001600160a01b031690565b60006106f082610abe565b9050806001600160a01b0316836001600160a01b0316036107625760405162461bcd60e51b815260206004820152602160248201527f4552433732313a20617070726f76616c20746f2063757272656e74206f776e656044820152603960f91b60648201526084015b60405180910390fd5b336001600160a01b038216148061077e575061077e8133610598565b6107f05760405162461bcd60e51b815260206004820152603d60248201527f4552433732313a20617070726f76652063616c6c6572206973206e6f7420746f60448201527f6b656e206f776e6572206f7220617070726f76656420666f7220616c6c0000006064820152608401610759565b6107fa8383610f7c565b505050565b6108093382610fea565b6108255760405162461bcd60e51b815260040161075990611db4565b6107fa838383611069565b600061083b83610b1e565b821061089d5760405162461bcd60e51b815260206004820152602b60248201527f455243373231456e756d657261626c653a206f776e657220696e646578206f7560448201526a74206f6620626f756e647360a81b6064820152608401610759565b506001600160a01b03919091166000908152600660209081526040808320938352929052205490565b6108ce610ec3565b60006108e2600a546001600160a01b031690565b6001600160a01b03164760405160006040518083038185875af1925050503d806000811461092c576040519150601f19603f3d011682016040523d82523d6000602084013e610931565b606091505b505090508061093f57600080fd5b50565b6107fa83838360405180602001604052806000815250610c8c565b6060600061096a83610b1e565b905060008167ffffffffffffffff81111561098757610987611bcc565b6040519080825280602002602001820160405280156109b0578160200160208202803683370190505b50905060005b828110156109f7576109c88582610830565b8282815181106109da576109da611e01565b6020908102919091010152806109ef81611e2d565b9150506109b6565b509392505050565b610a07610ec3565b600d55565b6000610a1760085490565b8210610a7a5760405162461bcd60e51b815260206004820152602c60248201527f455243373231456e756d657261626c653a20676c6f62616c20696e646578206f60448201526b7574206f6620626f756e647360a01b6064820152608401610759565b60088281548110610a8d57610a8d611e01565b90600052602060002001549050919050565b610aa7610ec3565b8051610aba90600b90602084019061197b565b5050565b6000818152600260205260408120546001600160a01b03168061060b5760405162461bcd60e51b8152602060048201526018602482015277115490cdcc8c4e881a5b9d985b1a59081d1bdad95b88125160421b6044820152606401610759565b60006001600160a01b038216610b885760405162461bcd60e51b815260206004820152602960248201527f4552433732313a2061646472657373207a65726f206973206e6f7420612076616044820152683634b21037bbb732b960b91b6064820152608401610759565b506001600160a01b031660009081526003602052604090205490565b610bac610ec3565b610bb660006111da565b565b610bc0610ec3565b600f55565b60606001805461063b90611d7a565b6000610bdf60085490565b60105490915060ff1615610bf257600080fd5b60008211610bff57600080fd5b600f54821115610c0e57600080fd5b600e54610c1b8383611e46565b1115610c2657600080fd5b600a546001600160a01b03163314610c525781600d54610c469190611e5e565b341015610c5257600080fd5b60015b8281116107fa57610c6f33610c6a8385611e46565b61122c565b80610c7981611e2d565b915050610c55565b610aba338383611246565b610c963383610fea565b610cb25760405162461bcd60e51b815260040161075990611db4565b610cbe84848484611314565b50505050565b600c8054610cd190611d7a565b80601f0160208091040260200160405190810160405280929190818152602001828054610cfd90611d7a565b8015610d4a5780601f10610d1f57610100808354040283529160200191610d4a565b820191906000526020600020905b815481529060010190602001808311610d2d57829003601f168201915b505050505081565b6000818152600260205260409020546060906001600160a01b0316610dd15760405162461bcd60e51b815260206004820152602f60248201527f4552433732314d657461646174613a2055524920717565727920666f72206e6f60448201526e3732bc34b9ba32b73a103a37b5b2b760891b6064820152608401610759565b6000610ddb611347565b9392505050565b610dea610ec3565b8051610aba90600c90602084019061197b565b610e05610ec3565b6001600160a01b038116610e6a5760405162461bcd60e51b815260206004820152602660248201527f4f776e61626c653a206e6577206f776e657220697320746865207a65726f206160448201526564647265737360d01b6064820152608401610759565b61093f816111da565b60006001600160e01b031982166380ac58cd60e01b1480610ea457506001600160e01b03198216635b5e139f60e01b145b8061060b57506301ffc9a760e01b6001600160e01b031983161461060b565b600a546001600160a01b03163314610bb65760405162461bcd60e51b815260206004820181905260248201527f4f776e61626c653a2063616c6c6572206973206e6f7420746865206f776e65726044820152606401610759565b6000818152600260205260409020546001600160a01b031661093f5760405162461bcd60e51b8152602060048201526018602482015277115490cdcc8c4e881a5b9d985b1a59081d1bdad95b88125160421b6044820152606401610759565b600081815260046020526040902080546001600160a01b0319166001600160a01b0384169081179091558190610fb182610abe565b6001600160a01b03167f8c5be1e5ebec7d5bd14f71427d1e84f3dd0314c0f7b2291e5b200ac8c7c3b92560405160405180910390a45050565b600080610ff683610abe565b9050806001600160a01b0316846001600160a01b0316148061103d57506001600160a01b0380821660009081526005602090815260408083209388168352929052205460ff165b806110615750836001600160a01b0316611056846106be565b6001600160a01b0316145b949350505050565b826001600160a01b031661107c82610abe565b6001600160a01b0316146110a25760405162461bcd60e51b815260040161075990611e7d565b6001600160a01b0382166111045760405162461bcd60e51b8152602060048201526024808201527f4552433732313a207472616e7366657220746f20746865207a65726f206164646044820152637265737360e01b6064820152608401610759565b6111118383836001611356565b826001600160a01b031661112482610abe565b6001600160a01b03161461114a5760405162461bcd60e51b815260040161075990611e7d565b600081815260046020908152604080832080546001600160a01b03199081169091556001600160a01b0387811680865260038552838620805460001901905590871680865283862080546001019055868652600290945282852080549092168417909155905184937fddf252ad1be2c89b69c2b068fc378daa952ba7f163c4a11628f55a4df523b3ef91a4505050565b600a80546001600160a01b038381166001600160a01b0319831681179093556040519116919082907f8be0079c531659141344cd1fd0a4f28419497f9722a3daafe3b4186f6b6457e090600090a35050565b610aba828260405180602001604052806000815250611496565b816001600160a01b0316836001600160a01b0316036112a75760405162461bcd60e51b815260206004820152601960248201527f4552433732313a20617070726f766520746f2063616c6c6572000000000000006044820152606401610759565b6001600160a01b03838116600081815260056020908152604080832094871680845294825291829020805460ff191686151590811790915591519182527f17307eab39ab6107e8899845ad3d59bd9653f200f220920489ca2b5937696c31910160405180910390a3505050565b61131f848484611069565b61132b848484846114c9565b610cbe5760405162461bcd60e51b815260040161075990611ec2565b6060600b805461063b90611d7a565b611362848484846115ca565b60018111156113d15760405162461bcd60e51b815260206004820152603560248201527f455243373231456e756d657261626c653a20636f6e7365637574697665207472604482015274185b9cd9995c9cc81b9bdd081cdd5c1c1bdc9d1959605a1b6064820152608401610759565b816001600160a01b03851661142d5761142881600880546000838152600960205260408120829055600182018355919091527ff3f7a9fe364faab93b216da50a3214154f22a0a2b415b23a84c8169e8b636ee30155565b611450565b836001600160a01b0316856001600160a01b031614611450576114508582611652565b6001600160a01b03841661146c57611467816116ef565b61148f565b846001600160a01b0316846001600160a01b03161461148f5761148f848261179e565b5050505050565b6114a083836117e2565b6114ad60008484846114c9565b6107fa5760405162461bcd60e51b815260040161075990611ec2565b60006001600160a01b0384163b156115bf57604051630a85bd0160e11b81526001600160a01b0385169063150b7a029061150d903390899088908890600401611f14565b6020604051808303816000875af1925050508015611548575060408051601f3d908101601f1916820190925261154591810190611f51565b60015b6115a5573d808015611576576040519150601f19603f3d011682016040523d82523d6000602084013e61157b565b606091505b50805160000361159d5760405162461bcd60e51b815260040161075990611ec2565b805181602001fd5b6001600160e01b031916630a85bd0160e11b149050611061565b506001949350505050565b6001811115610cbe576001600160a01b03841615611610576001600160a01b0384166000908152600360205260408120805483929061160a908490611f6e565b90915550505b6001600160a01b03831615610cbe576001600160a01b03831660009081526003602052604081208054839290611647908490611e46565b909155505050505050565b6000600161165f84610b1e565b6116699190611f6e565b6000838152600760205260409020549091508082146116bc576001600160a01b03841660009081526006602090815260408083208584528252808320548484528184208190558352600790915290208190555b5060009182526007602090815260408084208490556001600160a01b039094168352600681528383209183525290812055565b60085460009061170190600190611f6e565b6000838152600960205260408120546008805493945090928490811061172957611729611e01565b90600052602060002001549050806008838154811061174a5761174a611e01565b600091825260208083209091019290925582815260099091526040808220849055858252812055600880548061178257611782611f85565b6001900381819060005260206000200160009055905550505050565b60006117a983610b1e565b6001600160a01b039093166000908152600660209081526040808320868452825280832085905593825260079052919091209190915550565b6001600160a01b0382166118385760405162461bcd60e51b815260206004820181905260248201527f4552433732313a206d696e7420746f20746865207a65726f20616464726573736044820152606401610759565b6000818152600260205260409020546001600160a01b03161561189d5760405162461bcd60e51b815260206004820152601c60248201527f4552433732313a20746f6b656e20616c7265616479206d696e746564000000006044820152606401610759565b6118ab600083836001611356565b6000818152600260205260409020546001600160a01b0316156119105760405162461bcd60e51b815260206004820152601c60248201527f4552433732313a20746f6b656e20616c7265616479206d696e746564000000006044820152606401610759565b6001600160a01b038216600081815260036020908152604080832080546001019055848352600290915280822080546001600160a01b0319168417905551839291907fddf252ad1be2c89b69c2b068fc378daa952ba7f163c4a11628f55a4df523b3ef908290a45050565b82805461198790611d7a565b90600052602060002090601f0160209004810192826119a957600085556119ef565b82601f106119c257805160ff19168380011785556119ef565b828001600101855582156119ef579182015b828111156119ef5782518255916020019190600101906119d4565b506119fb9291506119ff565b5090565b5b808211156119fb5760008155600101611a00565b6001600160e01b03198116811461093f57600080fd5b600060208284031215611a3c57600080fd5b8135610ddb81611a14565b80358015158114611a5757600080fd5b919050565b600060208284031215611a6e57600080fd5b610ddb82611a47565b6000815180845260005b81811015611a9d57602081850181015186830182015201611a81565b81811115611aaf576000602083870101525b50601f01601f19169290920160200192915050565b602081526000610ddb6020830184611a77565b600060208284031215611ae957600080fd5b5035919050565b80356001600160a01b0381168114611a5757600080fd5b60008060408385031215611b1a57600080fd5b611b2383611af0565b946020939093013593505050565b600080600060608486031215611b4657600080fd5b611b4f84611af0565b9250611b5d60208501611af0565b9150604084013590509250925092565b600060208284031215611b7f57600080fd5b610ddb82611af0565b6020808252825182820181905260009190848201906040850190845b81811015611bc057835183529284019291840191600101611ba4565b50909695505050505050565b634e487b7160e01b600052604160045260246000fd5b600067ffffffffffffffff80841115611bfd57611bfd611bcc565b604051601f8501601f19908116603f01168101908282118183101715611c2557611c25611bcc565b81604052809350858152868686011115611c3e57600080fd5b858560208301376000602087830101525050509392505050565b600060208284031215611c6a57600080fd5b813567ffffffffffffffff811115611c8157600080fd5b8201601f81018413611c9257600080fd5b61106184823560208401611be2565b60008060408385031215611cb457600080fd5b611cbd83611af0565b9150611ccb60208401611a47565b90509250929050565b60008060008060808587031215611cea57600080fd5b611cf385611af0565b9350611d0160208601611af0565b925060408501359150606085013567ffffffffffffffff811115611d2457600080fd5b8501601f81018713611d3557600080fd5b611d4487823560208401611be2565b91505092959194509250565b60008060408385031215611d6357600080fd5b611d6c83611af0565b9150611ccb60208401611af0565b600181811c90821680611d8e57607f821691505b602082108103611dae57634e487b7160e01b600052602260045260246000fd5b50919050565b6020808252602d908201527f4552433732313a2063616c6c6572206973206e6f7420746f6b656e206f776e6560408201526c1c881bdc88185c1c1c9bdd9959609a1b606082015260800190565b634e487b7160e01b600052603260045260246000fd5b634e487b7160e01b600052601160045260246000fd5b600060018201611e3f57611e3f611e17565b5060010190565b60008219821115611e5957611e59611e17565b500190565b6000816000190483118215151615611e7857611e78611e17565b500290565b60208082526025908201527f4552433732313a207472616e736665722066726f6d20696e636f72726563742060408201526437bbb732b960d91b606082015260800190565b60208082526032908201527f4552433732313a207472616e7366657220746f206e6f6e20455243373231526560408201527131b2b4bb32b91034b6b83632b6b2b73a32b960711b606082015260800190565b6001600160a01b0385811682528416602082015260408101839052608060608201819052600090611f4790830184611a77565b9695505050505050565b600060208284031215611f6357600080fd5b8151610ddb81611a14565b600082821015611f8057611f80611e17565b500390565b634e487b7160e01b600052603160045260246000fdfea2646970667358221220bb87b8212306ad00be6c0b556444763e8c10cba647d346f0fb3bc328994b04c064736f6c634300080d0033",
    "linkReferences": {}
  },
  "methodIdentifiers": {
    "approve(address,uint256)": "095ea7b3",
    "balanceOf(address)": "70a08231",
    "baseExtension()": "c6682862",
    "cost()": "13faede6",
    "getApproved(uint256)": "081812fc",
    "isApprovedForAll(address,address)": "e985e9c5",
    "maxMintAmount()": "239c70ae",
    "maxSupply()": "d5abeb01",
    "mint(uint256)": "a0712d68",
    "name()": "06fdde03",
    "owner()": "8da5cb5b",
    "ownerOf(uint256)": "6352211e",
    "pause(bool)": "02329a29",
    "paused()": "5c975abb",
    "renounceOwnership()": "715018a6",
    "safeTransferFrom(address,address,uint256)": "42842e0e",
    "safeTransferFrom(address,address,uint256,bytes)": "b88d4fde",
    "setApprovalForAll(address,bool)": "a22cb465",
    "setBaseExtension(string)": "da3ef23f",
    "setBaseURI(string)": "55f804b3",
    "setCost(uint256)": "44a0d68a",
    "setmaxMintAmount(uint256)": "7f00c7a6",
    "supportsInterface(bytes4)": "01ffc9a7",
    "symbol()": "95d89b41",
    "tokenByIndex(uint256)": "4f6ccce7",
    "tokenOfOwnerByIndex(address,uint256)": "2f745c59",
    "tokenURI(uint256)": "c87b56dd",
    "totalSupply()": "18160ddd",
    "transferFrom(address,address,uint256)": "23b872dd",
    "transferOwnership(address)": "f2fde38b",
    "walletOfOwner(address)": "438b6300",
    "withdraw()": "3ccfd60b"
  },
  "id": 13
}