{
  "abi": [
    {
      "inputs": [
        {
          "internalType": "address",
          "name": "tokenAddress",
          "type": "address"
        },
        {
          "internalType": "uint256",
          "name": "tokenId",
          "type": "uint256"
        }
      ],
      "name": "buyItem",
      "outputs": [],
      "stateMutability": "payable",
      "type": "function"
    },
    {
      "inputs": [
        {
          "internalType": "address",
          "name": "tokenAddress",
          "type": "address"
        },
        {
          "internalType": "uint256",
          "name": "tokenId",
          "type": "uint256"
        },
        {
          "internalType": "uint256",
          "name": "price",
          "type": "uint256"
        }
      ],
      "name": "listItem",
      "outputs": [],
      "stateMutability": "nonpayable",
      "type": "function"
    },
    {
      "inputs": [
        {
          "internalType": "address",
          "name": "",
          "type": "address"
        },
        {
          "internalType": "uint256",
          "name": "",
          "type": "uint256"
        }
      ],
      "name": "listings",
      "outputs": [
        {
          "internalType": "uint256",
          "name": "price",
          "type": "uint256"
        },
        {
          "internalType": "address",
          "name": "seller",
          "type": "address"
        }
      ],
      "stateMutability": "view",
      "type": "function"
    },
    {
      "inputs": [
        {
          "internalType": "address",
          "name": "tokenAddress",
          "type": "address"
        },
        {
          "internalType": "uint256",
          "name": "tokenId",
          "type": "uint256"
        }
      ],
      "name": "removeItem",
      "outputs": [],
      "stateMutability": "nonpayable",
      "type": "function"
    }
  ],
  "bytecode": {
    "object": "0x608060405234801561001057600080fd5b50610538806100206000396000f3fe60806040526004361061003e5760003560e01c806207df301461004357806389bfd38f146100a95780639f37092a146100cb578063ade03d8a146100de575b600080fd5b34801561004f57600080fd5b5061008861005e36600461047d565b6000602081815292815260408082209093529081522080546001909101546001600160a01b031682565b604080519283526001600160a01b0390911660208301520160405180910390f35b3480156100b557600080fd5b506100c96100c43660046104a9565b610132565b005b6100c96100d936600461047d565b610307565b3480156100ea57600080fd5b506100c96100f936600461047d565b6001600160a01b0390911660009081526020818152604080832093835292905290812090815560010180546001600160a01b0319169055565b600081116101875760405162461bcd60e51b815260206004820152601c60248201527f5072696365206d7573742062652067726561746572207468616e20300000000060448201526064015b60405180910390fd5b6040516331a9108f60e11b81526004810183905233906001600160a01b03851690636352211e90602401602060405180830381865afa1580156101ce573d6000803e3d6000fd5b505050506040513d601f19601f820116820180604052508101906101f291906104de565b6001600160a01b0316146102545760405162461bcd60e51b815260206004820152602360248201527f596f7520617265206e6f7420746865206f776e6572206f66207468697320746f60448201526235b2b760e91b606482015260840161017e565b60405163095ea7b360e01b8152306004820152602481018390526001600160a01b0384169063095ea7b390604401600060405180830381600087803b15801561029c57600080fd5b505af11580156102b0573d6000803e3d6000fd5b50506040805180820182529384523360208086019182526001600160a01b03978816600090815280825283812097815296905294209251835550509051600190910180546001600160a01b03191691909216179055565b6001600160a01b03821660009081526020818152604080832084845290915290205434146103695760405162461bcd60e51b815260206004820152600f60248201526e496e636f727265637420707269636560881b604482015260640161017e565b6040516323b872dd60e01b8152306004820152336024820152604481018290526001600160a01b038316906323b872dd90606401600060405180830381600087803b1580156103b757600080fd5b505af11580156103cb573d6000803e3d6000fd5b505050506001600160a01b03828116600090815260208181526040808320858452909152808220600181015490549151931692909183916108fc84150291849190818181858888f19350505050158015610429573d6000803e3d6000fd5b5050506001600160a01b0390911660009081526020818152604080832093835292905290812090815560010180546001600160a01b0319169055565b6001600160a01b038116811461047a57600080fd5b50565b6000806040838503121561049057600080fd5b823561049b81610465565b946020939093013593505050565b6000806000606084860312156104be57600080fd5b83356104c981610465565b95602085013595506040909401359392505050565b6000602082840312156104f057600080fd5b81516104fb81610465565b939250505056fea26469706673582212202959888e2543b74abbdc21dceb22e77c81522dc1dbc831a9ab36d304f536d23a64736f6c63430008110033",
    "linkReferences": {}
  },
  "methodIdentifiers": {
    "buyItem(address,uint256)": "9f37092a",
    "listItem(address,uint256,uint256)": "89bfd38f",
    "listings(address,uint256)": "0007df30",
    "removeItem(address,uint256)": "ade03d8a"
  },
  "id": 12
}