{
  "abi": [
    {
      "inputs": [
        {
          "internalType": "address",
          "name": "tokenAddress",
          "type": "address"
        }
      ],
      "name": "buyItem",
      "outputs": [],
      "stateMutability": "payable",
      "type": "function"
    },
    {
      "inputs": [
        {
          "internalType": "address",
          "name": "tokenAddress",
          "type": "address"
        },
        {
          "internalType": "uint256",
          "name": "tokenId",
          "type": "uint256"
        },
        {
          "internalType": "uint256",
          "name": "price",
          "type": "uint256"
        }
      ],
      "name": "listItem",
      "outputs": [],
      "stateMutability": "nonpayable",
      "type": "function"
    },
    {
      "inputs": [
        {
          "internalType": "address",
          "name": "",
          "type": "address"
        },
        {
          "internalType": "uint256",
          "name": "",
          "type": "uint256"
        }
      ],
      "name": "listings",
      "outputs": [
        {
          "internalType": "uint256",
          "name": "id",
          "type": "uint256"
        },
        {
          "internalType": "uint256",
          "name": "price",
          "type": "uint256"
        },
        {
          "internalType": "address",
          "name": "seller",
          "type": "address"
        }
      ],
      "stateMutability": "view",
      "type": "function"
    }
  ],
  "bytecode": {
    "object": "0x608060405234801561001057600080fd5b5061084c806100206000396000f3fe6080604052600436106100335760003560e01c806207df301461003857806389bfd38f14610080578063dd62b039146100a2575b600080fd5b34801561004457600080fd5b50610058610053366004610737565b6100b5565b6040805193845260208401929092526001600160a01b03169082015260600160405180910390f35b34801561008c57600080fd5b506100a061009b366004610763565b610100565b005b6100a06100b0366004610798565b6102f3565b600060205281600052604060002081815481106100d157600080fd5b60009182526020909120600390910201805460018201546002909201549093509091506001600160a01b031683565b600081116101555760405162461bcd60e51b815260206004820152601c60248201527f5072696365206d7573742062652067726561746572207468616e20300000000060448201526064015b60405180910390fd5b6040516331a9108f60e11b81526004810183905233906001600160a01b03851690636352211e90602401602060405180830381865afa15801561019c573d6000803e3d6000fd5b505050506040513d601f19601f820116820180604052508101906101c091906107bc565b6001600160a01b0316146102225760405162461bcd60e51b815260206004820152602360248201527f596f7520617265206e6f7420746865206f776e6572206f66207468697320746f60448201526235b2b760e91b606482015260840161014c565b60405163095ea7b360e01b8152306004820152602481018390526001600160a01b0384169063095ea7b390604401600060405180830381600087803b15801561026a57600080fd5b505af115801561027e573d6000803e3d6000fd5b505050506001600160a01b0392831660009081526020818152604080832081516060810183529586528583019485523391860191825280546001808201835591855292909320945160039092029094019081559151908201559051600290910180546001600160a01b03191691909216179055565b60006102fe82610451565b805160208201519192509034146103495760405162461bcd60e51b815260206004820152600f60248201526e496e636f727265637420707269636560881b604482015260640161014c565b6040516323b872dd60e01b8152306004820152336024820152604481018290526001600160a01b038416906323b872dd90606401600060405180830381600087803b15801561039757600080fd5b505af11580156103ab573d6000803e3d6000fd5b505050604080840151602085015191519092506001600160a01b0383169180156108fc02916000818181858888f193505050501580156103ef573d6000803e3d6000fd5b506103fa84836105e4565b151560011461044b5760405162461bcd60e51b815260206004820152601860248201527f436f756c64206e6f742072656d6f7665206c697374696e670000000000000000604482015260640161014c565b50505050565b61047e6040518060600160405280600081526020016000815260200160006001600160a01b031681525090565b6001600160a01b03821660009081526020818152604080832080548251818502810185019093528083529192909190849084015b82821015610507576000848152602090819020604080516060810182526003860290920180548352600180820154848601526002909101546001600160a01b03169183019190915290835290920191016104b2565b50505050905060008151116105555760405162461bcd60e51b81526020600482015260146024820152734e6f20617661696c61626c65206c697374696e6760601b604482015260640161014c565b60008160008151811061056a5761056a6107d9565b602002602001015190506000600190505b82518110156105dc57816020015183828151811061059b5761059b6107d9565b60200260200101516020015110156105ca578281815181106105bf576105bf6107d9565b602002602001015191505b806105d4816107ef565b91505061057b565b509392505050565b6001600160a01b03821660009081526020818152604080832080548251818502810185019093528083528493849084015b8282101561066a576000848152602090819020604080516060810182526003860290920180548352600180820154848601526002909101546001600160a01b0316918301919091529083529092019101610615565b50505050905060005b8151811015610712578382828151811061068f5761068f6107d9565b60200260200101516000015103610700576001600160a01b03851660009081526020819052604090208054829081106106ca576106ca6107d9565b60009182526020822060039091020181815560018082019290925560020180546001600160a01b03191690559250610719915050565b8061070a816107ef565b915050610673565b5060009150505b92915050565b6001600160a01b038116811461073457600080fd5b50565b6000806040838503121561074a57600080fd5b82356107558161071f565b946020939093013593505050565b60008060006060848603121561077857600080fd5b83356107838161071f565b95602085013595506040909401359392505050565b6000602082840312156107aa57600080fd5b81356107b58161071f565b9392505050565b6000602082840312156107ce57600080fd5b81516107b58161071f565b634e487b7160e01b600052603260045260246000fd5b60006001820161080f57634e487b7160e01b600052601160045260246000fd5b506001019056fea26469706673582212201ee50e08160d4ff8bf8c936461b28e9bfc2a2ff8660be928f1f272cad885496964736f6c63430008110033",
    "linkReferences": {}
  },
  "methodIdentifiers": {
    "buyItem(address)": "dd62b039",
    "listItem(address,uint256,uint256)": "89bfd38f",
    "listings(address,uint256)": "0007df30"
  },
  "id": 15
}