{
  "abi": [
    {
      "inputs": [
        {
          "internalType": "address",
          "name": "tokenAddress",
          "type": "address"
        }
      ],
      "name": "buyListing",
      "outputs": [],
      "stateMutability": "payable",
      "type": "function"
    },
    {
      "inputs": [
        {
          "internalType": "address",
          "name": "tokenAddress",
          "type": "address"
        },
        {
          "internalType": "uint256",
          "name": "tokenID",
          "type": "uint256"
        },
        {
          "internalType": "uint256",
          "name": "price",
          "type": "uint256"
        }
      ],
      "name": "createListing",
      "outputs": [],
      "stateMutability": "nonpayable",
      "type": "function"
    },
    {
      "inputs": [
        {
          "internalType": "address",
          "name": "",
          "type": "address"
        },
        {
          "internalType": "uint256",
          "name": "",
          "type": "uint256"
        }
      ],
      "name": "listings",
      "outputs": [
        {
          "internalType": "address",
          "name": "owner",
          "type": "address"
        },
        {
          "internalType": "uint256",
          "name": "price",
          "type": "uint256"
        },
        {
          "internalType": "uint256",
          "name": "tokenID",
          "type": "uint256"
        }
      ],
      "stateMutability": "view",
      "type": "function"
    }
  ],
  "bytecode": {
    "object": "0x608060405234801561001057600080fd5b5061061f806100206000396000f3fe6080604052600436106100335760003560e01c806207df301461003857806324780c56146100815780636518c108146100a3575b600080fd5b34801561004457600080fd5b5061005861005336600461050a565b6100b6565b604080516001600160a01b03909416845260208401929092529082015260600160405180910390f35b34801561008d57600080fd5b506100a161009c366004610536565b610102565b005b6100a16100b136600461056b565b61028f565b600060205281600052604060002081815481106100d257600080fd5b60009182526020909120600390910201805460018201546002909201546001600160a01b03909116935090915083565b6040516331a9108f60e11b815260048101839052839033906001600160a01b03831690636352211e90602401602060405180830381865afa15801561014b573d6000803e3d6000fd5b505050506040513d601f19601f8201168201806040525081019061016f919061058f565b6001600160a01b0316146101ba5760405162461bcd60e51b815260206004820152600d60248201526c2737ba103a34329037bbb732b960991b60448201526064015b60405180910390fd5b60405163b7760c8f60e01b8152600481018490523060248201526001600160a01b0382169063b7760c8f90604401600060405180830381600087803b15801561020257600080fd5b505af1158015610216573d6000803e3d6000fd5b50506040805160608101825233815260208082019687528183019788526001600160a01b039889166000908152808252928320805460018082018355918552919093209151600390910290910180546001600160a01b031916919098161787559351938601939093555050905160029092019190915550565b6001600160a01b038116600090815260208190526040902080546102e35760405162461bcd60e51b815260206004820152600b60248201526a4e6f206c697374696e677360a81b60448201526064016101b1565b6000816000815481106102f8576102f86105ac565b906000526020600020906003020190506000600190505b825481101561037c57816001015483828154811061032f5761032f6105ac565b906000526020600020906003020160010154101561036a57828181548110610359576103596105ac565b906000526020600020906003020191505b80610374816105c2565b91505061030f565b5080600101543410156103c25760405162461bcd60e51b815260206004820152600e60248201526d09cdee840cadcdeeaced0408aa8960931b60448201526064016101b1565b600281015460405163b7760c8f60e01b8152600481019190915233602482015283906001600160a01b0382169063b7760c8f90604401600060405180830381600087803b15801561041257600080fd5b505af1158015610426573d6000803e3d6000fd5b505083546040516001600160a01b0390911692503480156108fc029250906000818181858888f19350505050158015610463573d6000803e3d6000fd5b5060005b83548110156104eb578260020154848281548110610487576104876105ac565b906000526020600020906003020160020154036104d9578381815481106104b0576104b06105ac565b60009182526020822060039091020180546001600160a01b031916815560018101829055600201555b806104e3816105c2565b915050610467565b5050505050565b6001600160a01b038116811461050757600080fd5b50565b6000806040838503121561051d57600080fd5b8235610528816104f2565b946020939093013593505050565b60008060006060848603121561054b57600080fd5b8335610556816104f2565b95602085013595506040909401359392505050565b60006020828403121561057d57600080fd5b8135610588816104f2565b9392505050565b6000602082840312156105a157600080fd5b8151610588816104f2565b634e487b7160e01b600052603260045260246000fd5b6000600182016105e257634e487b7160e01b600052601160045260246000fd5b506001019056fea26469706673582212202cf34e468a90031ed4480e58f3f24898ea1ca0c877dfe5afa319dd463b9a66b264736f6c634300080d0033",
    "linkReferences": {}
  },
  "methodIdentifiers": {
    "buyListing(address)": "6518c108",
    "createListing(address,uint256,uint256)": "24780c56",
    "listings(address,uint256)": "0007df30"
  },
  "id": 3
}