{
  "abi": [
    {
      "inputs": [
        {
          "internalType": "string",
          "name": "name_",
          "type": "string"
        },
        {
          "internalType": "string",
          "name": "symbol_",
          "type": "string"
        },
        {
          "internalType": "address",
          "name": "mother_",
          "type": "address"
        }
      ],
      "name": "createNew721",
      "outputs": [],
      "stateMutability": "nonpayable",
      "type": "function"
    }
  ],
  "bytecode": {
    "object": "0x608060405234801561001057600080fd5b50611847806100206000396000f3fe608060405234801561001057600080fd5b506004361061002b5760003560e01c806327e382d014610030575b600080fd5b61004361003e3660046101ac565b610045565b005b6000838383604051610056906100fc565b61006293929190610276565b604051809103906000f08015801561007e573d6000803e3d6000fd5b5060005460405163c7ae745160e01b81526001600160a01b03808416600483015292935083929091169063c7ae7451906024016020604051808303816000875af11580156100d0573d6000803e3d6000fd5b505050506040513d601f19601f820116820180604052508101906100f491906102b4565b505050505050565b611534806102de83390190565b634e487b7160e01b600052604160045260246000fd5b600082601f83011261013057600080fd5b813567ffffffffffffffff8082111561014b5761014b610109565b604051601f8301601f19908116603f0116810190828211818310171561017357610173610109565b8160405283815286602085880101111561018c57600080fd5b836020870160208301376000602085830101528094505050505092915050565b6000806000606084860312156101c157600080fd5b833567ffffffffffffffff808211156101d957600080fd5b6101e58783880161011f565b945060208601359150808211156101fb57600080fd5b506102088682870161011f565b92505060408401356001600160a01b038116811461022557600080fd5b809150509250925092565b6000815180845260005b818110156102565760208185018101518683018201520161023a565b506000602082860101526020601f19601f83011685010191505092915050565b6060815260006102896060830186610230565b828103602084015261029b8186610230565b91505060018060a01b0383166040830152949350505050565b6000602082840312156102c657600080fd5b815180151581146102d657600080fd5b939250505056fe60806040523480156200001157600080fd5b506040516200153438038062001534833981016040819052620000349162000140565b60006200004284826200025c565b5060016200005183826200025c565b50600280546001600160a01b0319166001600160a01b039290921691909117905550620003289050565b634e487b7160e01b600052604160045260246000fd5b600082601f830112620000a357600080fd5b81516001600160401b0380821115620000c057620000c06200007b565b604051601f8301601f19908116603f01168101908282118183101715620000eb57620000eb6200007b565b816040528381526020925086838588010111156200010857600080fd5b600091505b838210156200012c57858201830151818301840152908201906200010d565b600093810190920192909252949350505050565b6000806000606084860312156200015657600080fd5b83516001600160401b03808211156200016e57600080fd5b6200017c8783880162000091565b945060208601519150808211156200019357600080fd5b50620001a28682870162000091565b604086015190935090506001600160a01b0381168114620001c257600080fd5b809150509250925092565b600181811c90821680620001e257607f821691505b6020821081036200020357634e487b7160e01b600052602260045260246000fd5b50919050565b601f8211156200025757600081815260208120601f850160051c81016020861015620002325750805b601f850160051c820191505b8181101562000253578281556001016200023e565b5050505b505050565b81516001600160401b038111156200027857620002786200007b565b6200029081620002898454620001cd565b8462000209565b602080601f831160018114620002c85760008415620002af5750858301515b600019600386901b1c1916600185901b17855562000253565b600085815260208120601f198616915b82811015620002f957888601518255948401946001909101908401620002d8565b5085821015620003185787850151600019600388901b60f8161c191681555b5050505050600190811b01905550565b6111fc80620003386000396000f3fe608060405234801561001057600080fd5b50600436106100ea5760003560e01c80636352211e1161008c578063a22cb46511610066578063a22cb465146101f2578063b88d4fde14610205578063c87b56dd14610218578063e985e9c51461022b57600080fd5b80636352211e146101b657806370a08231146101c957806395d89b41146101ea57600080fd5b8063095ea7b3116100c8578063095ea7b3146101685780630a6526561461017d57806323b872dd1461019057806342842e0e146101a357600080fd5b806301ffc9a7146100ef57806306fdde0314610128578063081812fc1461013d575b600080fd5b6101136100fd366004610d8d565b6001600160e01b0319166301ffc9a760e01b1490565b60405190151581526020015b60405180910390f35b61013061023e565b60405161011f9190610dfa565b61015061014b366004610e0d565b6102d0565b6040516001600160a01b03909116815260200161011f565b61017b610176366004610e42565b61036a565b005b600254610150906001600160a01b031681565b61017b61019e366004610e6c565b61047f565b61017b6101b1366004610e6c565b6104b0565b6101506101c4366004610e0d565b6104cb565b6101dc6101d7366004610ea8565b610548565b60405190815260200161011f565b6101306105cf565b61017b610200366004610ec3565b6105de565b61017b610213366004610f15565b6106a2565b610130610226366004610e0d565b6106da565b610113610239366004610ff1565b6107c2565b60606000805461024d90611024565b80601f016020809104026020016040519081016040528092919081815260200182805461027990611024565b80156102c65780601f1061029b576101008083540402835291602001916102c6565b820191906000526020600020905b8154815290600101906020018083116102a957829003601f168201915b5050505050905090565b6000818152600360205260408120546001600160a01b031661034e5760405162461bcd60e51b815260206004820152602c60248201527f4552433732313a20617070726f76656420717565727920666f72206e6f6e657860448201526b34b9ba32b73a103a37b5b2b760a11b60648201526084015b60405180910390fd5b506000908152600660205260409020546001600160a01b031690565b6000610375826104cb565b9050806001600160a01b0316836001600160a01b0316036103e25760405162461bcd60e51b815260206004820152602160248201527f4552433732313a20617070726f76616c20746f2063757272656e74206f776e656044820152603960f91b6064820152608401610345565b336001600160a01b03821614806103fe57506103fe81336107c2565b6104705760405162461bcd60e51b815260206004820152603860248201527f4552433732313a20617070726f76652063616c6c6572206973206e6f74206f7760448201527f6e6572206e6f7220617070726f76656420666f7220616c6c00000000000000006064820152608401610345565b61047a83836107f0565b505050565b610489338261085e565b6104a55760405162461bcd60e51b81526004016103459061105e565b61047a838383610935565b61047a838383604051806020016040528060008152506106a2565b6000818152600360205260408120546001600160a01b0316806105425760405162461bcd60e51b815260206004820152602960248201527f4552433732313a206f776e657220717565727920666f72206e6f6e657869737460448201526832b73a103a37b5b2b760b91b6064820152608401610345565b92915050565b60006001600160a01b0382166105b35760405162461bcd60e51b815260206004820152602a60248201527f4552433732313a2062616c616e636520717565727920666f7220746865207a65604482015269726f206164647265737360b01b6064820152608401610345565b506001600160a01b031660009081526004602052604090205490565b60606001805461024d90611024565b336001600160a01b038316036106365760405162461bcd60e51b815260206004820152601960248201527f4552433732313a20617070726f766520746f2063616c6c6572000000000000006044820152606401610345565b3360008181526007602090815260408083206001600160a01b03871680855290835292819020805460ff191686151590811790915590519081529192917f17307eab39ab6107e8899845ad3d59bd9653f200f220920489ca2b5937696c31910160405180910390a35050565b6106ac338361085e565b6106c85760405162461bcd60e51b81526004016103459061105e565b6106d484848484610ad5565b50505050565b6000818152600360205260409020546060906001600160a01b03166107595760405162461bcd60e51b815260206004820152602f60248201527f4552433732314d657461646174613a2055524920717565727920666f72206e6f60448201526e3732bc34b9ba32b73a103a37b5b2b760891b6064820152608401610345565b600061077060408051602081019091526000815290565b9050600081511161079057604051806020016040528060008152506107bb565b8061079a84610b08565b6040516020016107ab9291906110af565b6040516020818303038152906040525b9392505050565b6001600160a01b03918216600090815260076020908152604080832093909416825291909152205460ff1690565b600081815260066020526040902080546001600160a01b0319166001600160a01b0384169081179091558190610825826104cb565b6001600160a01b03167f8c5be1e5ebec7d5bd14f71427d1e84f3dd0314c0f7b2291e5b200ac8c7c3b92560405160405180910390a45050565b6000818152600360205260408120546001600160a01b03166108d75760405162461bcd60e51b815260206004820152602c60248201527f4552433732313a206f70657261746f7220717565727920666f72206e6f6e657860448201526b34b9ba32b73a103a37b5b2b760a11b6064820152608401610345565b60006108e2836104cb565b9050806001600160a01b0316846001600160a01b0316148061091d5750836001600160a01b0316610912846102d0565b6001600160a01b0316145b8061092d575061092d81856107c2565b949350505050565b826001600160a01b0316610948826104cb565b6001600160a01b0316146109b05760405162461bcd60e51b815260206004820152602960248201527f4552433732313a207472616e73666572206f6620746f6b656e2074686174206960448201526839903737ba1037bbb760b91b6064820152608401610345565b6001600160a01b038216610a125760405162461bcd60e51b8152602060048201526024808201527f4552433732313a207472616e7366657220746f20746865207a65726f206164646044820152637265737360e01b6064820152608401610345565b610a1d6000826107f0565b6001600160a01b0383166000908152600460205260408120805460019290610a469084906110f4565b90915550506001600160a01b0382166000908152600460205260408120805460019290610a74908490611107565b909155505060008181526003602052604080822080546001600160a01b0319166001600160a01b0386811691821790925591518493918716917fddf252ad1be2c89b69c2b068fc378daa952ba7f163c4a11628f55a4df523b3ef91a4505050565b610ae0848484610935565b610aec84848484610b9b565b6106d45760405162461bcd60e51b81526004016103459061111a565b60606000610b1583610c9c565b600101905060008167ffffffffffffffff811115610b3557610b35610eff565b6040519080825280601f01601f191660200182016040528015610b5f576020820181803683370190505b5090508181016020015b600019016f181899199a1a9b1b9c1cb0b131b232b360811b600a86061a8153600a8504945084610b6957509392505050565b60006001600160a01b0384163b15610c9157604051630a85bd0160e11b81526001600160a01b0385169063150b7a0290610bdf90339089908890889060040161116c565b6020604051808303816000875af1925050508015610c1a575060408051601f3d908101601f19168201909252610c17918101906111a9565b60015b610c77573d808015610c48576040519150601f19603f3d011682016040523d82523d6000602084013e610c4d565b606091505b508051600003610c6f5760405162461bcd60e51b81526004016103459061111a565b805181602001fd5b6001600160e01b031916630a85bd0160e11b14905061092d565b506001949350505050565b60008072184f03e93ff9f4daa797ed6e38ed64bf6a1f0160401b8310610cdb5772184f03e93ff9f4daa797ed6e38ed64bf6a1f0160401b830492506040015b6d04ee2d6d415b85acef81000000008310610d07576d04ee2d6d415b85acef8100000000830492506020015b662386f26fc100008310610d2557662386f26fc10000830492506010015b6305f5e1008310610d3d576305f5e100830492506008015b6127108310610d5157612710830492506004015b60648310610d63576064830492506002015b600a83106105425760010192915050565b6001600160e01b031981168114610d8a57600080fd5b50565b600060208284031215610d9f57600080fd5b81356107bb81610d74565b60005b83811015610dc5578181015183820152602001610dad565b50506000910152565b60008151808452610de6816020860160208601610daa565b601f01601f19169290920160200192915050565b6020815260006107bb6020830184610dce565b600060208284031215610e1f57600080fd5b5035919050565b80356001600160a01b0381168114610e3d57600080fd5b919050565b60008060408385031215610e5557600080fd5b610e5e83610e26565b946020939093013593505050565b600080600060608486031215610e8157600080fd5b610e8a84610e26565b9250610e9860208501610e26565b9150604084013590509250925092565b600060208284031215610eba57600080fd5b6107bb82610e26565b60008060408385031215610ed657600080fd5b610edf83610e26565b915060208301358015158114610ef457600080fd5b809150509250929050565b634e487b7160e01b600052604160045260246000fd5b60008060008060808587031215610f2b57600080fd5b610f3485610e26565b9350610f4260208601610e26565b925060408501359150606085013567ffffffffffffffff80821115610f6657600080fd5b818701915087601f830112610f7a57600080fd5b813581811115610f8c57610f8c610eff565b604051601f8201601f19908116603f01168101908382118183101715610fb457610fb4610eff565b816040528281528a6020848701011115610fcd57600080fd5b82602086016020830137600060208483010152809550505050505092959194509250565b6000806040838503121561100457600080fd5b61100d83610e26565b915061101b60208401610e26565b90509250929050565b600181811c9082168061103857607f821691505b60208210810361105857634e487b7160e01b600052602260045260246000fd5b50919050565b60208082526031908201527f4552433732313a207472616e736665722063616c6c6572206973206e6f74206f6040820152701ddb995c881b9bdc88185c1c1c9bdd9959607a1b606082015260800190565b600083516110c1818460208801610daa565b8351908301906110d5818360208801610daa565b01949350505050565b634e487b7160e01b600052601160045260246000fd5b81810381811115610542576105426110de565b80820180821115610542576105426110de565b60208082526032908201527f4552433732313a207472616e7366657220746f206e6f6e20455243373231526560408201527131b2b4bb32b91034b6b83632b6b2b73a32b960711b606082015260800190565b6001600160a01b038581168252841660208201526040810183905260806060820181905260009061119f90830184610dce565b9695505050505050565b6000602082840312156111bb57600080fd5b81516107bb81610d7456fea26469706673582212203b65058202179938daed8ff3f3f93f801efdb2c9e7045b5a6d9265a23f11534164736f6c63430008110033a2646970667358221220b851c69f758bfab50693cdf4051eda061754bdf34a07a95c109f3810adc2932764736f6c63430008110033",
    "linkReferences": {}
  },
  "methodIdentifiers": {
    "createNew721(string,string,address)": "27e382d0"
  },
  "id": 10
}