{
  "abi": [
    {
      "inputs": [
        {
          "internalType": "string",
          "name": "name_",
          "type": "string"
        },
        {
          "internalType": "string",
          "name": "symbol_",
          "type": "string"
        },
        {
          "internalType": "string",
          "name": "_initBaseURI",
          "type": "string"
        }
      ],
      "name": "createNew721",
      "outputs": [],
      "stateMutability": "nonpayable",
      "type": "function"
    }
  ],
  "bytecode": {
    "object": "0x608060405234801561001057600080fd5b50612835806100206000396000f3fe608060405234801561001057600080fd5b506004361061002b5760003560e01c806352cf217a14610030575b600080fd5b61004361003e3660046101ac565b610045565b005b6000838383604051610056906100fc565b6100629392919061027a565b604051809103906000f08015801561007e573d6000803e3d6000fd5b5060005460405163c7ae745160e01b81526001600160a01b03808416600483015292935083929091169063c7ae7451906024016020604051808303816000875af11580156100d0573d6000803e3d6000fd5b505050506040513d601f19601f820116820180604052508101906100f491906102bd565b505050505050565b612519806102e783390190565b634e487b7160e01b600052604160045260246000fd5b600082601f83011261013057600080fd5b813567ffffffffffffffff8082111561014b5761014b610109565b604051601f8301601f19908116603f0116810190828211818310171561017357610173610109565b8160405283815286602085880101111561018c57600080fd5b836020870160208301376000602085830101528094505050505092915050565b6000806000606084860312156101c157600080fd5b833567ffffffffffffffff808211156101d957600080fd5b6101e58783880161011f565b945060208601359150808211156101fb57600080fd5b6102078783880161011f565b9350604086013591508082111561021d57600080fd5b5061022a8682870161011f565b9150509250925092565b6000815180845260005b8181101561025a5760208185018101518683018201520161023e565b506000602082860101526020601f19601f83011685010191505092915050565b60608152600061028d6060830186610234565b828103602084015261029f8186610234565b905082810360408401526102b38185610234565b9695505050505050565b6000602082840312156102cf57600080fd5b815180151581146102df57600080fd5b939250505056fe60c06040526005608090815264173539b7b760d91b60a052600c906200002690826200023e565b5066b1a2bc2ec50000600d556064600e556001600f556010805460ff191690553480156200005357600080fd5b5060405162002519380380620025198339810160408190526200007691620003b9565b828260006200008683826200023e565b5060016200009582826200023e565b505050620000b2620000ac620000c660201b60201c565b620000ca565b620000bd816200011c565b5050506200044a565b3390565b600a80546001600160a01b038381166001600160a01b0319831681179093556040519116919082907f8be0079c531659141344cd1fd0a4f28419497f9722a3daafe3b4186f6b6457e090600090a35050565b6200012662000138565b600b6200013482826200023e565b5050565b600a546001600160a01b03163314620001975760405162461bcd60e51b815260206004820181905260248201527f4f776e61626c653a2063616c6c6572206973206e6f7420746865206f776e6572604482015260640160405180910390fd5b565b634e487b7160e01b600052604160045260246000fd5b600181811c90821680620001c457607f821691505b602082108103620001e557634e487b7160e01b600052602260045260246000fd5b50919050565b601f8211156200023957600081815260208120601f850160051c81016020861015620002145750805b601f850160051c820191505b81811015620002355782815560010162000220565b5050505b505050565b81516001600160401b038111156200025a576200025a62000199565b62000272816200026b8454620001af565b84620001eb565b602080601f831160018114620002aa5760008415620002915750858301515b600019600386901b1c1916600185901b17855562000235565b600085815260208120601f198616915b82811015620002db57888601518255948401946001909101908401620002ba565b5085821015620002fa5787850151600019600388901b60f8161c191681555b5050505050600190811b01905550565b600082601f8301126200031c57600080fd5b81516001600160401b038082111562000339576200033962000199565b604051601f8301601f19908116603f0116810190828211818310171562000364576200036462000199565b816040528381526020925086838588010111156200038157600080fd5b600091505b83821015620003a5578582018301518183018401529082019062000386565b600093810190920192909252949350505050565b600080600060608486031215620003cf57600080fd5b83516001600160401b0380821115620003e757600080fd5b620003f5878388016200030a565b945060208601519150808211156200040c57600080fd5b6200041a878388016200030a565b935060408601519150808211156200043157600080fd5b5062000440868287016200030a565b9150509250925092565b6120bf806200045a6000396000f3fe6080604052600436106101e35760003560e01c80635c975abb11610102578063a22cb46511610095578063d5abeb0111610064578063d5abeb0114610547578063da3ef23f1461055d578063e985e9c51461057d578063f2fde38b146105c657600080fd5b8063a22cb465146104d2578063b88d4fde146104f2578063c668286214610512578063c87b56dd1461052757600080fd5b80637f00c7a6116100d15780637f00c7a61461046c5780638da5cb5b1461048c57806395d89b41146104aa578063a0712d68146104bf57600080fd5b80635c975abb146103fd5780636352211e1461041757806370a0823114610437578063715018a61461045757600080fd5b806323b872dd1161017a578063438b630011610149578063438b63001461037057806344a0d68a1461039d5780634f6ccce7146103bd57806355f804b3146103dd57600080fd5b806323b872dd146103085780632f745c59146103285780633ccfd60b1461034857806342842e0e1461035057600080fd5b8063095ea7b3116101b6578063095ea7b31461029957806313faede6146102b957806318160ddd146102dd578063239c70ae146102f257600080fd5b806301ffc9a7146101e857806302329a291461021d57806306fdde031461023f578063081812fc14610261575b600080fd5b3480156101f457600080fd5b50610208610203366004611a00565b6105e6565b60405190151581526020015b60405180910390f35b34801561022957600080fd5b5061023d610238366004611a32565b610611565b005b34801561024b57600080fd5b5061025461062c565b6040516102149190611a93565b34801561026d57600080fd5b5061028161027c366004611aa6565b6106be565b6040516001600160a01b039091168152602001610214565b3480156102a557600080fd5b5061023d6102b4366004611ad6565b6106e5565b3480156102c557600080fd5b506102cf600d5481565b604051908152602001610214565b3480156102e957600080fd5b506008546102cf565b3480156102fe57600080fd5b506102cf600f5481565b34801561031457600080fd5b5061023d610323366004611b00565b6107ff565b34801561033457600080fd5b506102cf610343366004611ad6565b610830565b61023d6108c6565b34801561035c57600080fd5b5061023d61036b366004611b00565b6109c0565b34801561037c57600080fd5b5061039061038b366004611b3c565b6109db565b6040516102149190611b57565b3480156103a957600080fd5b5061023d6103b8366004611aa6565b610a7d565b3480156103c957600080fd5b506102cf6103d8366004611aa6565b610a8a565b3480156103e957600080fd5b5061023d6103f8366004611c27565b610b1d565b34801561040957600080fd5b506010546102089060ff1681565b34801561042357600080fd5b50610281610432366004611aa6565b610b31565b34801561044357600080fd5b506102cf610452366004611b3c565b610b91565b34801561046357600080fd5b5061023d610c17565b34801561047857600080fd5b5061023d610487366004611aa6565b610c2b565b34801561049857600080fd5b50600a546001600160a01b0316610281565b3480156104b657600080fd5b50610254610c38565b61023d6104cd366004611aa6565b610c47565b3480156104de57600080fd5b5061023d6104ed366004611c70565b610cf4565b3480156104fe57600080fd5b5061023d61050d366004611ca3565b610cff565b34801561051e57600080fd5b50610254610d37565b34801561053357600080fd5b50610254610542366004611aa6565b610dc5565b34801561055357600080fd5b506102cf600e5481565b34801561056957600080fd5b5061023d610578366004611c27565b610e55565b34801561058957600080fd5b50610208610598366004611d1f565b6001600160a01b03918216600090815260056020908152604080832093909416825291909152205460ff1690565b3480156105d257600080fd5b5061023d6105e1366004611b3c565b610e69565b60006001600160e01b0319821663780e9d6360e01b148061060b575061060b82610ee2565b92915050565b610619610f32565b6010805460ff1916911515919091179055565b60606000805461063b90611d49565b80601f016020809104026020016040519081016040528092919081815260200182805461066790611d49565b80156106b45780601f10610689576101008083540402835291602001916106b4565b820191906000526020600020905b81548152906001019060200180831161069757829003601f168201915b5050505050905090565b60006106c982610f8c565b506000908152600460205260409020546001600160a01b031690565b60006106f082610b31565b9050806001600160a01b0316836001600160a01b0316036107625760405162461bcd60e51b815260206004820152602160248201527f4552433732313a20617070726f76616c20746f2063757272656e74206f776e656044820152603960f91b60648201526084015b60405180910390fd5b336001600160a01b038216148061077e575061077e8133610598565b6107f05760405162461bcd60e51b815260206004820152603d60248201527f4552433732313a20617070726f76652063616c6c6572206973206e6f7420746f60448201527f6b656e206f776e6572206f7220617070726f76656420666f7220616c6c0000006064820152608401610759565b6107fa8383610feb565b505050565b6108093382611059565b6108255760405162461bcd60e51b815260040161075990611d83565b6107fa8383836110d8565b600061083b83610b91565b821061089d5760405162461bcd60e51b815260206004820152602b60248201527f455243373231456e756d657261626c653a206f776e657220696e646578206f7560448201526a74206f6620626f756e647360a81b6064820152608401610759565b506001600160a01b03919091166000908152600660209081526040808320938352929052205490565b6108ce610f32565b600073943590a42c27d08e3744202c4ae5ed55c2de240d60646108f2476005611de6565b6108fc9190611dfd565b604051600081818185875af1925050503d8060008114610938576040519150601f19603f3d011682016040523d82523d6000602084013e61093d565b606091505b505090508061094b57600080fd5b600061095f600a546001600160a01b031690565b6001600160a01b03164760405160006040518083038185875af1925050503d80600081146109a9576040519150601f19603f3d011682016040523d82523d6000602084013e6109ae565b606091505b50509050806109bc57600080fd5b5050565b6107fa83838360405180602001604052806000815250610cff565b606060006109e883610b91565b905060008167ffffffffffffffff811115610a0557610a05611b9b565b604051908082528060200260200182016040528015610a2e578160200160208202803683370190505b50905060005b82811015610a7557610a468582610830565b828281518110610a5857610a58611e1f565b602090810291909101015280610a6d81611e35565b915050610a34565b509392505050565b610a85610f32565b600d55565b6000610a9560085490565b8210610af85760405162461bcd60e51b815260206004820152602c60248201527f455243373231456e756d657261626c653a20676c6f62616c20696e646578206f60448201526b7574206f6620626f756e647360a01b6064820152608401610759565b60088281548110610b0b57610b0b611e1f565b90600052602060002001549050919050565b610b25610f32565b600b6109bc8282611e9c565b6000818152600260205260408120546001600160a01b03168061060b5760405162461bcd60e51b8152602060048201526018602482015277115490cdcc8c4e881a5b9d985b1a59081d1bdad95b88125160421b6044820152606401610759565b60006001600160a01b038216610bfb5760405162461bcd60e51b815260206004820152602960248201527f4552433732313a2061646472657373207a65726f206973206e6f7420612076616044820152683634b21037bbb732b960b91b6064820152608401610759565b506001600160a01b031660009081526003602052604090205490565b610c1f610f32565b610c296000611249565b565b610c33610f32565b600f55565b60606001805461063b90611d49565b6000610c5260085490565b60105490915060ff1615610c6557600080fd5b60008211610c7257600080fd5b600f54821115610c8157600080fd5b600e54610c8e8383611f5c565b1115610c9957600080fd5b600a546001600160a01b03163314610cc55781600d54610cb99190611de6565b341015610cc557600080fd5b60015b8281116107fa57610ce233610cdd8385611f5c565b61129b565b80610cec81611e35565b915050610cc8565b6109bc3383836112b5565b610d093383611059565b610d255760405162461bcd60e51b815260040161075990611d83565b610d3184848484611383565b50505050565b600c8054610d4490611d49565b80601f0160208091040260200160405190810160405280929190818152602001828054610d7090611d49565b8015610dbd5780601f10610d9257610100808354040283529160200191610dbd565b820191906000526020600020905b815481529060010190602001808311610da057829003601f168201915b505050505081565b6000818152600260205260409020546060906001600160a01b0316610e445760405162461bcd60e51b815260206004820152602f60248201527f4552433732314d657461646174613a2055524920717565727920666f72206e6f60448201526e3732bc34b9ba32b73a103a37b5b2b760891b6064820152608401610759565b6000610e4e6113b6565b9392505050565b610e5d610f32565b600c6109bc8282611e9c565b610e71610f32565b6001600160a01b038116610ed65760405162461bcd60e51b815260206004820152602660248201527f4f776e61626c653a206e6577206f776e657220697320746865207a65726f206160448201526564647265737360d01b6064820152608401610759565b610edf81611249565b50565b60006001600160e01b031982166380ac58cd60e01b1480610f1357506001600160e01b03198216635b5e139f60e01b145b8061060b57506301ffc9a760e01b6001600160e01b031983161461060b565b600a546001600160a01b03163314610c295760405162461bcd60e51b815260206004820181905260248201527f4f776e61626c653a2063616c6c6572206973206e6f7420746865206f776e65726044820152606401610759565b6000818152600260205260409020546001600160a01b0316610edf5760405162461bcd60e51b8152602060048201526018602482015277115490cdcc8c4e881a5b9d985b1a59081d1bdad95b88125160421b6044820152606401610759565b600081815260046020526040902080546001600160a01b0319166001600160a01b038416908117909155819061102082610b31565b6001600160a01b03167f8c5be1e5ebec7d5bd14f71427d1e84f3dd0314c0f7b2291e5b200ac8c7c3b92560405160405180910390a45050565b60008061106583610b31565b9050806001600160a01b0316846001600160a01b031614806110ac57506001600160a01b0380821660009081526005602090815260408083209388168352929052205460ff165b806110d05750836001600160a01b03166110c5846106be565b6001600160a01b0316145b949350505050565b826001600160a01b03166110eb82610b31565b6001600160a01b0316146111115760405162461bcd60e51b815260040161075990611f6f565b6001600160a01b0382166111735760405162461bcd60e51b8152602060048201526024808201527f4552433732313a207472616e7366657220746f20746865207a65726f206164646044820152637265737360e01b6064820152608401610759565b61118083838360016113c5565b826001600160a01b031661119382610b31565b6001600160a01b0316146111b95760405162461bcd60e51b815260040161075990611f6f565b600081815260046020908152604080832080546001600160a01b03199081169091556001600160a01b0387811680865260038552838620805460001901905590871680865283862080546001019055868652600290945282852080549092168417909155905184937fddf252ad1be2c89b69c2b068fc378daa952ba7f163c4a11628f55a4df523b3ef91a4505050565b600a80546001600160a01b038381166001600160a01b0319831681179093556040519116919082907f8be0079c531659141344cd1fd0a4f28419497f9722a3daafe3b4186f6b6457e090600090a35050565b6109bc828260405180602001604052806000815250611505565b816001600160a01b0316836001600160a01b0316036113165760405162461bcd60e51b815260206004820152601960248201527f4552433732313a20617070726f766520746f2063616c6c6572000000000000006044820152606401610759565b6001600160a01b03838116600081815260056020908152604080832094871680845294825291829020805460ff191686151590811790915591519182527f17307eab39ab6107e8899845ad3d59bd9653f200f220920489ca2b5937696c31910160405180910390a3505050565b61138e8484846110d8565b61139a84848484611538565b610d315760405162461bcd60e51b815260040161075990611fb4565b6060600b805461063b90611d49565b6113d184848484611639565b60018111156114405760405162461bcd60e51b815260206004820152603560248201527f455243373231456e756d657261626c653a20636f6e7365637574697665207472604482015274185b9cd9995c9cc81b9bdd081cdd5c1c1bdc9d1959605a1b6064820152608401610759565b816001600160a01b03851661149c5761149781600880546000838152600960205260408120829055600182018355919091527ff3f7a9fe364faab93b216da50a3214154f22a0a2b415b23a84c8169e8b636ee30155565b6114bf565b836001600160a01b0316856001600160a01b0316146114bf576114bf85826116c1565b6001600160a01b0384166114db576114d68161175e565b6114fe565b846001600160a01b0316846001600160a01b0316146114fe576114fe848261180d565b5050505050565b61150f8383611851565b61151c6000848484611538565b6107fa5760405162461bcd60e51b815260040161075990611fb4565b60006001600160a01b0384163b1561162e57604051630a85bd0160e11b81526001600160a01b0385169063150b7a029061157c903390899088908890600401612006565b6020604051808303816000875af19250505080156115b7575060408051601f3d908101601f191682019092526115b491810190612043565b60015b611614573d8080156115e5576040519150601f19603f3d011682016040523d82523d6000602084013e6115ea565b606091505b50805160000361160c5760405162461bcd60e51b815260040161075990611fb4565b805181602001fd5b6001600160e01b031916630a85bd0160e11b1490506110d0565b506001949350505050565b6001811115610d31576001600160a01b0384161561167f576001600160a01b03841660009081526003602052604081208054839290611679908490612060565b90915550505b6001600160a01b03831615610d31576001600160a01b038316600090815260036020526040812080548392906116b6908490611f5c565b909155505050505050565b600060016116ce84610b91565b6116d89190612060565b60008381526007602052604090205490915080821461172b576001600160a01b03841660009081526006602090815260408083208584528252808320548484528184208190558352600790915290208190555b5060009182526007602090815260408084208490556001600160a01b039094168352600681528383209183525290812055565b60085460009061177090600190612060565b6000838152600960205260408120546008805493945090928490811061179857611798611e1f565b9060005260206000200154905080600883815481106117b9576117b9611e1f565b60009182526020808320909101929092558281526009909152604080822084905585825281205560088054806117f1576117f1612073565b6001900381819060005260206000200160009055905550505050565b600061181883610b91565b6001600160a01b039093166000908152600660209081526040808320868452825280832085905593825260079052919091209190915550565b6001600160a01b0382166118a75760405162461bcd60e51b815260206004820181905260248201527f4552433732313a206d696e7420746f20746865207a65726f20616464726573736044820152606401610759565b6000818152600260205260409020546001600160a01b03161561190c5760405162461bcd60e51b815260206004820152601c60248201527f4552433732313a20746f6b656e20616c7265616479206d696e746564000000006044820152606401610759565b61191a6000838360016113c5565b6000818152600260205260409020546001600160a01b03161561197f5760405162461bcd60e51b815260206004820152601c60248201527f4552433732313a20746f6b656e20616c7265616479206d696e746564000000006044820152606401610759565b6001600160a01b038216600081815260036020908152604080832080546001019055848352600290915280822080546001600160a01b0319168417905551839291907fddf252ad1be2c89b69c2b068fc378daa952ba7f163c4a11628f55a4df523b3ef908290a45050565b6001600160e01b031981168114610edf57600080fd5b600060208284031215611a1257600080fd5b8135610e4e816119ea565b80358015158114611a2d57600080fd5b919050565b600060208284031215611a4457600080fd5b610e4e82611a1d565b6000815180845260005b81811015611a7357602081850181015186830182015201611a57565b506000602082860101526020601f19601f83011685010191505092915050565b602081526000610e4e6020830184611a4d565b600060208284031215611ab857600080fd5b5035919050565b80356001600160a01b0381168114611a2d57600080fd5b60008060408385031215611ae957600080fd5b611af283611abf565b946020939093013593505050565b600080600060608486031215611b1557600080fd5b611b1e84611abf565b9250611b2c60208501611abf565b9150604084013590509250925092565b600060208284031215611b4e57600080fd5b610e4e82611abf565b6020808252825182820181905260009190848201906040850190845b81811015611b8f57835183529284019291840191600101611b73565b50909695505050505050565b634e487b7160e01b600052604160045260246000fd5b600067ffffffffffffffff80841115611bcc57611bcc611b9b565b604051601f8501601f19908116603f01168101908282118183101715611bf457611bf4611b9b565b81604052809350858152868686011115611c0d57600080fd5b858560208301376000602087830101525050509392505050565b600060208284031215611c3957600080fd5b813567ffffffffffffffff811115611c5057600080fd5b8201601f81018413611c6157600080fd5b6110d084823560208401611bb1565b60008060408385031215611c8357600080fd5b611c8c83611abf565b9150611c9a60208401611a1d565b90509250929050565b60008060008060808587031215611cb957600080fd5b611cc285611abf565b9350611cd060208601611abf565b925060408501359150606085013567ffffffffffffffff811115611cf357600080fd5b8501601f81018713611d0457600080fd5b611d1387823560208401611bb1565b91505092959194509250565b60008060408385031215611d3257600080fd5b611d3b83611abf565b9150611c9a60208401611abf565b600181811c90821680611d5d57607f821691505b602082108103611d7d57634e487b7160e01b600052602260045260246000fd5b50919050565b6020808252602d908201527f4552433732313a2063616c6c6572206973206e6f7420746f6b656e206f776e6560408201526c1c881bdc88185c1c1c9bdd9959609a1b606082015260800190565b634e487b7160e01b600052601160045260246000fd5b808202811582820484141761060b5761060b611dd0565b600082611e1a57634e487b7160e01b600052601260045260246000fd5b500490565b634e487b7160e01b600052603260045260246000fd5b600060018201611e4757611e47611dd0565b5060010190565b601f8211156107fa57600081815260208120601f850160051c81016020861015611e755750805b601f850160051c820191505b81811015611e9457828155600101611e81565b505050505050565b815167ffffffffffffffff811115611eb657611eb6611b9b565b611eca81611ec48454611d49565b84611e4e565b602080601f831160018114611eff5760008415611ee75750858301515b600019600386901b1c1916600185901b178555611e94565b600085815260208120601f198616915b82811015611f2e57888601518255948401946001909101908401611f0f565b5085821015611f4c5787850151600019600388901b60f8161c191681555b5050505050600190811b01905550565b8082018082111561060b5761060b611dd0565b60208082526025908201527f4552433732313a207472616e736665722066726f6d20696e636f72726563742060408201526437bbb732b960d91b606082015260800190565b60208082526032908201527f4552433732313a207472616e7366657220746f206e6f6e20455243373231526560408201527131b2b4bb32b91034b6b83632b6b2b73a32b960711b606082015260800190565b6001600160a01b038581168252841660208201526040810183905260806060820181905260009061203990830184611a4d565b9695505050505050565b60006020828403121561205557600080fd5b8151610e4e816119ea565b8181038181111561060b5761060b611dd0565b634e487b7160e01b600052603160045260246000fdfea26469706673582212201c6f586323f6793755a0848b4edf6fcd65026e956c018f623e7a6aafa994747764736f6c63430008110033a2646970667358221220c73f605686aa498ba481d9389b0f85f69ac36e60d73b416e53896a144d69b2ac64736f6c63430008110033",
    "linkReferences": {}
  },
  "methodIdentifiers": {
    "createNew721(string,string,string)": "52cf217a"
  },
  "id": 14
}