{
  "abi": [
    {
      "inputs": [
        {
          "internalType": "string",
          "name": "name_",
          "type": "string"
        },
        {
          "internalType": "string",
          "name": "symbol_",
          "type": "string"
        },
        {
          "internalType": "string",
          "name": "initBaseURI_",
          "type": "string"
        }
      ],
      "name": "createNew721",
      "outputs": [],
      "stateMutability": "nonpayable",
      "type": "function"
    },
    {
      "inputs": [
        {
          "internalType": "address",
          "name": "motherContractAddress",
          "type": "address"
        }
      ],
      "name": "setMother",
      "outputs": [],
      "stateMutability": "nonpayable",
      "type": "function"
    }
  ],
  "bytecode": {
    "object": "0x608060405234801561001057600080fd5b506127fa806100206000396000f3fe608060405234801561001057600080fd5b50600436106100365760003560e01c806352cf217a1461003b578063ce5b930c14610050575b600080fd5b61004e6100493660046101e7565b610080565b005b61004e61005e36600461026f565b600080546001600160a01b0319166001600160a01b0392909216919091179055565b600083838360405161009190610137565b61009d939291906102e5565b604051809103906000f0801580156100b9573d6000803e3d6000fd5b5060005460405163c7ae745160e01b81526001600160a01b03808416600483015292935083929091169063c7ae7451906024016020604051808303816000875af115801561010b573d6000803e3d6000fd5b505050506040513d601f19601f8201168201806040525081019061012f9190610328565b505050505050565b61247a8061034b83390190565b634e487b7160e01b600052604160045260246000fd5b600082601f83011261016b57600080fd5b813567ffffffffffffffff8082111561018657610186610144565b604051601f8301601f19908116603f011681019082821181831017156101ae576101ae610144565b816040528381528660208588010111156101c757600080fd5b836020870160208301376000602085830101528094505050505092915050565b6000806000606084860312156101fc57600080fd5b833567ffffffffffffffff8082111561021457600080fd5b6102208783880161015a565b9450602086013591508082111561023657600080fd5b6102428783880161015a565b9350604086013591508082111561025857600080fd5b506102658682870161015a565b9150509250925092565b60006020828403121561028157600080fd5b81356001600160a01b038116811461029857600080fd5b9392505050565b6000815180845260005b818110156102c5576020818501810151868301820152016102a9565b506000602082860101526020601f19601f83011685010191505092915050565b6060815260006102f8606083018661029f565b828103602084015261030a818661029f565b9050828103604084015261031e818561029f565b9695505050505050565b60006020828403121561033a57600080fd5b8151801515811461029857600080fdfe60c06040526005608090815264173539b7b760d91b60a052600c906200002690826200023e565b5066b1a2bc2ec50000600d556064600e556001600f556010805460ff191690553480156200005357600080fd5b506040516200247a3803806200247a8339810160408190526200007691620003b9565b828260006200008683826200023e565b5060016200009582826200023e565b505050620000b2620000ac620000c660201b60201c565b620000ca565b620000bd816200011c565b5050506200044a565b3390565b600a80546001600160a01b038381166001600160a01b0319831681179093556040519116919082907f8be0079c531659141344cd1fd0a4f28419497f9722a3daafe3b4186f6b6457e090600090a35050565b6200012662000138565b600b6200013482826200023e565b5050565b600a546001600160a01b03163314620001975760405162461bcd60e51b815260206004820181905260248201527f4f776e61626c653a2063616c6c6572206973206e6f7420746865206f776e6572604482015260640160405180910390fd5b565b634e487b7160e01b600052604160045260246000fd5b600181811c90821680620001c457607f821691505b602082108103620001e557634e487b7160e01b600052602260045260246000fd5b50919050565b601f8211156200023957600081815260208120601f850160051c81016020861015620002145750805b601f850160051c820191505b81811015620002355782815560010162000220565b5050505b505050565b81516001600160401b038111156200025a576200025a62000199565b62000272816200026b8454620001af565b84620001eb565b602080601f831160018114620002aa5760008415620002915750858301515b600019600386901b1c1916600185901b17855562000235565b600085815260208120601f198616915b82811015620002db57888601518255948401946001909101908401620002ba565b5085821015620002fa5787850151600019600388901b60f8161c191681555b5050505050600190811b01905550565b600082601f8301126200031c57600080fd5b81516001600160401b038082111562000339576200033962000199565b604051601f8301601f19908116603f0116810190828211818310171562000364576200036462000199565b816040528381526020925086838588010111156200038157600080fd5b600091505b83821015620003a5578582018301518183018401529082019062000386565b600093810190920192909252949350505050565b600080600060608486031215620003cf57600080fd5b83516001600160401b0380821115620003e757600080fd5b620003f5878388016200030a565b945060208601519150808211156200040c57600080fd5b6200041a878388016200030a565b935060408601519150808211156200043157600080fd5b5062000440868287016200030a565b9150509250925092565b612020806200045a6000396000f3fe6080604052600436106101e35760003560e01c80635c975abb11610102578063a22cb46511610095578063d5abeb0111610064578063d5abeb0114610547578063da3ef23f1461055d578063e985e9c51461057d578063f2fde38b146105c657600080fd5b8063a22cb465146104d2578063b88d4fde146104f2578063c668286214610512578063c87b56dd1461052757600080fd5b80637f00c7a6116100d15780637f00c7a61461046c5780638da5cb5b1461048c57806395d89b41146104aa578063a0712d68146104bf57600080fd5b80635c975abb146103fd5780636352211e1461041757806370a0823114610437578063715018a61461045757600080fd5b806323b872dd1161017a578063438b630011610149578063438b63001461037057806344a0d68a1461039d5780634f6ccce7146103bd57806355f804b3146103dd57600080fd5b806323b872dd146103085780632f745c59146103285780633ccfd60b1461034857806342842e0e1461035057600080fd5b8063095ea7b3116101b6578063095ea7b31461029957806313faede6146102b957806318160ddd146102dd578063239c70ae146102f257600080fd5b806301ffc9a7146101e857806302329a291461021d57806306fdde031461023f578063081812fc14610261575b600080fd5b3480156101f457600080fd5b50610208610203366004611983565b6105e6565b60405190151581526020015b60405180910390f35b34801561022957600080fd5b5061023d6102383660046119b5565b610611565b005b34801561024b57600080fd5b5061025461062c565b6040516102149190611a16565b34801561026d57600080fd5b5061028161027c366004611a29565b6106be565b6040516001600160a01b039091168152602001610214565b3480156102a557600080fd5b5061023d6102b4366004611a59565b6106e5565b3480156102c557600080fd5b506102cf600d5481565b604051908152602001610214565b3480156102e957600080fd5b506008546102cf565b3480156102fe57600080fd5b506102cf600f5481565b34801561031457600080fd5b5061023d610323366004611a83565b6107ff565b34801561033457600080fd5b506102cf610343366004611a59565b610830565b61023d6108c6565b34801561035c57600080fd5b5061023d61036b366004611a83565b610942565b34801561037c57600080fd5b5061039061038b366004611abf565b61095d565b6040516102149190611ada565b3480156103a957600080fd5b5061023d6103b8366004611a29565b6109ff565b3480156103c957600080fd5b506102cf6103d8366004611a29565b610a0c565b3480156103e957600080fd5b5061023d6103f8366004611baa565b610a9f565b34801561040957600080fd5b506010546102089060ff1681565b34801561042357600080fd5b50610281610432366004611a29565b610ab7565b34801561044357600080fd5b506102cf610452366004611abf565b610b17565b34801561046357600080fd5b5061023d610b9d565b34801561047857600080fd5b5061023d610487366004611a29565b610bb1565b34801561049857600080fd5b50600a546001600160a01b0316610281565b3480156104b657600080fd5b50610254610bbe565b61023d6104cd366004611a29565b610bcd565b3480156104de57600080fd5b5061023d6104ed366004611bf3565b610c7a565b3480156104fe57600080fd5b5061023d61050d366004611c26565b610c85565b34801561051e57600080fd5b50610254610cbd565b34801561053357600080fd5b50610254610542366004611a29565b610d4b565b34801561055357600080fd5b506102cf600e5481565b34801561056957600080fd5b5061023d610578366004611baa565b610ddb565b34801561058957600080fd5b50610208610598366004611ca2565b6001600160a01b03918216600090815260056020908152604080832093909416825291909152205460ff1690565b3480156105d257600080fd5b5061023d6105e1366004611abf565b610def565b60006001600160e01b0319821663780e9d6360e01b148061060b575061060b82610e65565b92915050565b610619610eb5565b6010805460ff1916911515919091179055565b60606000805461063b90611ccc565b80601f016020809104026020016040519081016040528092919081815260200182805461066790611ccc565b80156106b45780601f10610689576101008083540402835291602001916106b4565b820191906000526020600020905b81548152906001019060200180831161069757829003601f168201915b5050505050905090565b60006106c982610f0f565b506000908152600460205260409020546001600160a01b031690565b60006106f082610ab7565b9050806001600160a01b0316836001600160a01b0316036107625760405162461bcd60e51b815260206004820152602160248201527f4552433732313a20617070726f76616c20746f2063757272656e74206f776e656044820152603960f91b60648201526084015b60405180910390fd5b336001600160a01b038216148061077e575061077e8133610598565b6107f05760405162461bcd60e51b815260206004820152603d60248201527f4552433732313a20617070726f76652063616c6c6572206973206e6f7420746f60448201527f6b656e206f776e6572206f7220617070726f76656420666f7220616c6c0000006064820152608401610759565b6107fa8383610f6e565b505050565b6108093382610fdc565b6108255760405162461bcd60e51b815260040161075990611d06565b6107fa83838361105b565b600061083b83610b17565b821061089d5760405162461bcd60e51b815260206004820152602b60248201527f455243373231456e756d657261626c653a206f776e657220696e646578206f7560448201526a74206f6620626f756e647360a81b6064820152608401610759565b506001600160a01b03919091166000908152600660209081526040808320938352929052205490565b6108ce610eb5565b60006108e2600a546001600160a01b031690565b6001600160a01b03164760405160006040518083038185875af1925050503d806000811461092c576040519150601f19603f3d011682016040523d82523d6000602084013e610931565b606091505b505090508061093f57600080fd5b50565b6107fa83838360405180602001604052806000815250610c85565b6060600061096a83610b17565b905060008167ffffffffffffffff81111561098757610987611b1e565b6040519080825280602002602001820160405280156109b0578160200160208202803683370190505b50905060005b828110156109f7576109c88582610830565b8282815181106109da576109da611d53565b6020908102919091010152806109ef81611d7f565b9150506109b6565b509392505050565b610a07610eb5565b600d55565b6000610a1760085490565b8210610a7a5760405162461bcd60e51b815260206004820152602c60248201527f455243373231456e756d657261626c653a20676c6f62616c20696e646578206f60448201526b7574206f6620626f756e647360a01b6064820152608401610759565b60088281548110610a8d57610a8d611d53565b90600052602060002001549050919050565b610aa7610eb5565b600b610ab38282611de6565b5050565b6000818152600260205260408120546001600160a01b03168061060b5760405162461bcd60e51b8152602060048201526018602482015277115490cdcc8c4e881a5b9d985b1a59081d1bdad95b88125160421b6044820152606401610759565b60006001600160a01b038216610b815760405162461bcd60e51b815260206004820152602960248201527f4552433732313a2061646472657373207a65726f206973206e6f7420612076616044820152683634b21037bbb732b960b91b6064820152608401610759565b506001600160a01b031660009081526003602052604090205490565b610ba5610eb5565b610baf60006111cc565b565b610bb9610eb5565b600f55565b60606001805461063b90611ccc565b6000610bd860085490565b60105490915060ff1615610beb57600080fd5b60008211610bf857600080fd5b600f54821115610c0757600080fd5b600e54610c148383611ea6565b1115610c1f57600080fd5b600a546001600160a01b03163314610c4b5781600d54610c3f9190611eb9565b341015610c4b57600080fd5b60015b8281116107fa57610c6833610c638385611ea6565b61121e565b80610c7281611d7f565b915050610c4e565b610ab3338383611238565b610c8f3383610fdc565b610cab5760405162461bcd60e51b815260040161075990611d06565b610cb784848484611306565b50505050565b600c8054610cca90611ccc565b80601f0160208091040260200160405190810160405280929190818152602001828054610cf690611ccc565b8015610d435780601f10610d1857610100808354040283529160200191610d43565b820191906000526020600020905b815481529060010190602001808311610d2657829003601f168201915b505050505081565b6000818152600260205260409020546060906001600160a01b0316610dca5760405162461bcd60e51b815260206004820152602f60248201527f4552433732314d657461646174613a2055524920717565727920666f72206e6f60448201526e3732bc34b9ba32b73a103a37b5b2b760891b6064820152608401610759565b6000610dd4611339565b9392505050565b610de3610eb5565b600c610ab38282611de6565b610df7610eb5565b6001600160a01b038116610e5c5760405162461bcd60e51b815260206004820152602660248201527f4f776e61626c653a206e6577206f776e657220697320746865207a65726f206160448201526564647265737360d01b6064820152608401610759565b61093f816111cc565b60006001600160e01b031982166380ac58cd60e01b1480610e9657506001600160e01b03198216635b5e139f60e01b145b8061060b57506301ffc9a760e01b6001600160e01b031983161461060b565b600a546001600160a01b03163314610baf5760405162461bcd60e51b815260206004820181905260248201527f4f776e61626c653a2063616c6c6572206973206e6f7420746865206f776e65726044820152606401610759565b6000818152600260205260409020546001600160a01b031661093f5760405162461bcd60e51b8152602060048201526018602482015277115490cdcc8c4e881a5b9d985b1a59081d1bdad95b88125160421b6044820152606401610759565b600081815260046020526040902080546001600160a01b0319166001600160a01b0384169081179091558190610fa382610ab7565b6001600160a01b03167f8c5be1e5ebec7d5bd14f71427d1e84f3dd0314c0f7b2291e5b200ac8c7c3b92560405160405180910390a45050565b600080610fe883610ab7565b9050806001600160a01b0316846001600160a01b0316148061102f57506001600160a01b0380821660009081526005602090815260408083209388168352929052205460ff165b806110535750836001600160a01b0316611048846106be565b6001600160a01b0316145b949350505050565b826001600160a01b031661106e82610ab7565b6001600160a01b0316146110945760405162461bcd60e51b815260040161075990611ed0565b6001600160a01b0382166110f65760405162461bcd60e51b8152602060048201526024808201527f4552433732313a207472616e7366657220746f20746865207a65726f206164646044820152637265737360e01b6064820152608401610759565b6111038383836001611348565b826001600160a01b031661111682610ab7565b6001600160a01b03161461113c5760405162461bcd60e51b815260040161075990611ed0565b600081815260046020908152604080832080546001600160a01b03199081169091556001600160a01b0387811680865260038552838620805460001901905590871680865283862080546001019055868652600290945282852080549092168417909155905184937fddf252ad1be2c89b69c2b068fc378daa952ba7f163c4a11628f55a4df523b3ef91a4505050565b600a80546001600160a01b038381166001600160a01b0319831681179093556040519116919082907f8be0079c531659141344cd1fd0a4f28419497f9722a3daafe3b4186f6b6457e090600090a35050565b610ab3828260405180602001604052806000815250611488565b816001600160a01b0316836001600160a01b0316036112995760405162461bcd60e51b815260206004820152601960248201527f4552433732313a20617070726f766520746f2063616c6c6572000000000000006044820152606401610759565b6001600160a01b03838116600081815260056020908152604080832094871680845294825291829020805460ff191686151590811790915591519182527f17307eab39ab6107e8899845ad3d59bd9653f200f220920489ca2b5937696c31910160405180910390a3505050565b61131184848461105b565b61131d848484846114bb565b610cb75760405162461bcd60e51b815260040161075990611f15565b6060600b805461063b90611ccc565b611354848484846115bc565b60018111156113c35760405162461bcd60e51b815260206004820152603560248201527f455243373231456e756d657261626c653a20636f6e7365637574697665207472604482015274185b9cd9995c9cc81b9bdd081cdd5c1c1bdc9d1959605a1b6064820152608401610759565b816001600160a01b03851661141f5761141a81600880546000838152600960205260408120829055600182018355919091527ff3f7a9fe364faab93b216da50a3214154f22a0a2b415b23a84c8169e8b636ee30155565b611442565b836001600160a01b0316856001600160a01b031614611442576114428582611644565b6001600160a01b03841661145e57611459816116e1565b611481565b846001600160a01b0316846001600160a01b031614611481576114818482611790565b5050505050565b61149283836117d4565b61149f60008484846114bb565b6107fa5760405162461bcd60e51b815260040161075990611f15565b60006001600160a01b0384163b156115b157604051630a85bd0160e11b81526001600160a01b0385169063150b7a02906114ff903390899088908890600401611f67565b6020604051808303816000875af192505050801561153a575060408051601f3d908101601f1916820190925261153791810190611fa4565b60015b611597573d808015611568576040519150601f19603f3d011682016040523d82523d6000602084013e61156d565b606091505b50805160000361158f5760405162461bcd60e51b815260040161075990611f15565b805181602001fd5b6001600160e01b031916630a85bd0160e11b149050611053565b506001949350505050565b6001811115610cb7576001600160a01b03841615611602576001600160a01b038416600090815260036020526040812080548392906115fc908490611fc1565b90915550505b6001600160a01b03831615610cb7576001600160a01b03831660009081526003602052604081208054839290611639908490611ea6565b909155505050505050565b6000600161165184610b17565b61165b9190611fc1565b6000838152600760205260409020549091508082146116ae576001600160a01b03841660009081526006602090815260408083208584528252808320548484528184208190558352600790915290208190555b5060009182526007602090815260408084208490556001600160a01b039094168352600681528383209183525290812055565b6008546000906116f390600190611fc1565b6000838152600960205260408120546008805493945090928490811061171b5761171b611d53565b90600052602060002001549050806008838154811061173c5761173c611d53565b600091825260208083209091019290925582815260099091526040808220849055858252812055600880548061177457611774611fd4565b6001900381819060005260206000200160009055905550505050565b600061179b83610b17565b6001600160a01b039093166000908152600660209081526040808320868452825280832085905593825260079052919091209190915550565b6001600160a01b03821661182a5760405162461bcd60e51b815260206004820181905260248201527f4552433732313a206d696e7420746f20746865207a65726f20616464726573736044820152606401610759565b6000818152600260205260409020546001600160a01b03161561188f5760405162461bcd60e51b815260206004820152601c60248201527f4552433732313a20746f6b656e20616c7265616479206d696e746564000000006044820152606401610759565b61189d600083836001611348565b6000818152600260205260409020546001600160a01b0316156119025760405162461bcd60e51b815260206004820152601c60248201527f4552433732313a20746f6b656e20616c7265616479206d696e746564000000006044820152606401610759565b6001600160a01b038216600081815260036020908152604080832080546001019055848352600290915280822080546001600160a01b0319168417905551839291907fddf252ad1be2c89b69c2b068fc378daa952ba7f163c4a11628f55a4df523b3ef908290a45050565b6001600160e01b03198116811461093f57600080fd5b60006020828403121561199557600080fd5b8135610dd48161196d565b803580151581146119b057600080fd5b919050565b6000602082840312156119c757600080fd5b610dd4826119a0565b6000815180845260005b818110156119f6576020818501810151868301820152016119da565b506000602082860101526020601f19601f83011685010191505092915050565b602081526000610dd460208301846119d0565b600060208284031215611a3b57600080fd5b5035919050565b80356001600160a01b03811681146119b057600080fd5b60008060408385031215611a6c57600080fd5b611a7583611a42565b946020939093013593505050565b600080600060608486031215611a9857600080fd5b611aa184611a42565b9250611aaf60208501611a42565b9150604084013590509250925092565b600060208284031215611ad157600080fd5b610dd482611a42565b6020808252825182820181905260009190848201906040850190845b81811015611b1257835183529284019291840191600101611af6565b50909695505050505050565b634e487b7160e01b600052604160045260246000fd5b600067ffffffffffffffff80841115611b4f57611b4f611b1e565b604051601f8501601f19908116603f01168101908282118183101715611b7757611b77611b1e565b81604052809350858152868686011115611b9057600080fd5b858560208301376000602087830101525050509392505050565b600060208284031215611bbc57600080fd5b813567ffffffffffffffff811115611bd357600080fd5b8201601f81018413611be457600080fd5b61105384823560208401611b34565b60008060408385031215611c0657600080fd5b611c0f83611a42565b9150611c1d602084016119a0565b90509250929050565b60008060008060808587031215611c3c57600080fd5b611c4585611a42565b9350611c5360208601611a42565b925060408501359150606085013567ffffffffffffffff811115611c7657600080fd5b8501601f81018713611c8757600080fd5b611c9687823560208401611b34565b91505092959194509250565b60008060408385031215611cb557600080fd5b611cbe83611a42565b9150611c1d60208401611a42565b600181811c90821680611ce057607f821691505b602082108103611d0057634e487b7160e01b600052602260045260246000fd5b50919050565b6020808252602d908201527f4552433732313a2063616c6c6572206973206e6f7420746f6b656e206f776e6560408201526c1c881bdc88185c1c1c9bdd9959609a1b606082015260800190565b634e487b7160e01b600052603260045260246000fd5b634e487b7160e01b600052601160045260246000fd5b600060018201611d9157611d91611d69565b5060010190565b601f8211156107fa57600081815260208120601f850160051c81016020861015611dbf5750805b601f850160051c820191505b81811015611dde57828155600101611dcb565b505050505050565b815167ffffffffffffffff811115611e0057611e00611b1e565b611e1481611e0e8454611ccc565b84611d98565b602080601f831160018114611e495760008415611e315750858301515b600019600386901b1c1916600185901b178555611dde565b600085815260208120601f198616915b82811015611e7857888601518255948401946001909101908401611e59565b5085821015611e965787850151600019600388901b60f8161c191681555b5050505050600190811b01905550565b8082018082111561060b5761060b611d69565b808202811582820484141761060b5761060b611d69565b60208082526025908201527f4552433732313a207472616e736665722066726f6d20696e636f72726563742060408201526437bbb732b960d91b606082015260800190565b60208082526032908201527f4552433732313a207472616e7366657220746f206e6f6e20455243373231526560408201527131b2b4bb32b91034b6b83632b6b2b73a32b960711b606082015260800190565b6001600160a01b0385811682528416602082015260408101839052608060608201819052600090611f9a908301846119d0565b9695505050505050565b600060208284031215611fb657600080fd5b8151610dd48161196d565b8181038181111561060b5761060b611d69565b634e487b7160e01b600052603160045260246000fdfea264697066735822122021f6eb1aada8ced852ab1a842d09a403e5b8b577a8ee94953c52ae62372d4b9e64736f6c63430008110033a26469706673582212200f1a017119afa11cf471052b3934d88712685fba4c61e952bcbc1d07fbedad1764736f6c63430008110033",
    "linkReferences": {}
  },
  "methodIdentifiers": {
    "createNew721(string,string,string)": "52cf217a",
    "setMother(address)": "ce5b930c"
  },
  "id": 14
}