{
  "abi": [
    {
      "anonymous": false,
      "inputs": [
        {
          "indexed": false,
          "internalType": "address",
          "name": "eventAddress",
          "type": "address"
        }
      ],
      "name": "NewEventCreated",
      "type": "event"
    },
    {
      "inputs": [],
      "name": "addEvent",
      "outputs": [],
      "stateMutability": "nonpayable",
      "type": "function"
    },
    {
      "inputs": [],
      "name": "mother",
      "outputs": [
        {
          "internalType": "address",
          "name": "",
          "type": "address"
        }
      ],
      "stateMutability": "view",
      "type": "function"
    },
    {
      "inputs": [
        {
          "internalType": "address",
          "name": "newMotherAddress",
          "type": "address"
        }
      ],
      "name": "setMother",
      "outputs": [],
      "stateMutability": "nonpayable",
      "type": "function"
    }
  ],
  "bytecode": {
    "object": "0x608060405234801561001057600080fd5b506104aa806100206000396000f3fe608060405234801561001057600080fd5b50600436106100415760003560e01c80635452391314610046578063ce5b930c14610050578063ed7dfee314610080575b600080fd5b61004e6100af565b005b61004e61005e36600461018b565b600080546001600160a01b0319166001600160a01b0392909216919091179055565b600054610093906001600160a01b031681565b6040516001600160a01b03909116815260200160405180910390f35b60006040516100bd9061017e565b604051809103906000f0801580156100d9573d6000803e3d6000fd5b5060005460405163c7ae745160e01b81526001600160a01b038084166004830152929350911690819063c7ae745190602401600060405180830381600087803b15801561012557600080fd5b505af1158015610139573d6000803e3d6000fd5b50506040516001600160a01b03851681527f3e23b7a7e40facf59dc1f83e3bbfde4e793d543ba829a72fa7baedcbbf12fc819250602001905060405180910390a15050565b6102b9806101bc83390190565b60006020828403121561019d57600080fd5b81356001600160a01b03811681146101b457600080fd5b939250505056fe6080604052600060015534801561001557600080fd5b50610294806100256000396000f3fe60806040526004361061004a5760003560e01c80631249c58b1461004f5780633e794dc3146100595780634903b0d1146100825780636352211e146100d0578063b7760c8f14610106575b600080fd5b610057610126565b005b34801561006557600080fd5b5061006f60015481565b6040519081526020015b60405180910390f35b34801561008e57600080fd5b506100b861009d3660046101e3565b6000602081905290815260409020546001600160a01b031681565b6040516001600160a01b039091168152602001610079565b3480156100dc57600080fd5b506100b86100eb3660046101e3565b6000908152602081905260409020546001600160a01b031690565b34801561011257600080fd5b506100576101213660046101fc565b61016d565b610134565b60405180910390fd5b60018054600090815260208190526040812080546001600160a01b031916331790558154829190610166908390610238565b9091555050565b6001600160a01b0381166101b55760405162461bcd60e51b815260206004820152600f60248201526e496e76616c6964206164647265737360881b604482015260640161012b565b60009182526020829052604090912080546001600160a01b0319166001600160a01b03909216919091179055565b6000602082840312156101f557600080fd5b5035919050565b6000806040838503121561020f57600080fd5b8235915060208301356001600160a01b038116811461022d57600080fd5b809150509250929050565b6000821982111561025957634e487b7160e01b600052601160045260246000fd5b50019056fea26469706673582212200972755033b57d5886c36cfd6bf44821c6990592ccdb4a766f588ac46dc9165a64736f6c634300080d0033a2646970667358221220ec2b4f8e4f1b2bdea3779552b7795f4bc2ec88f6795991e7083d63bd51c091c464736f6c634300080d0033",
    "linkReferences": {}
  },
  "methodIdentifiers": {
    "addEvent()": "54523913",
    "mother()": "ed7dfee3",
    "setMother(address)": "ce5b930c"
  },
  "id": 1
}