{
  "abi": [
    {
      "inputs": [
        {
          "internalType": "address",
          "name": "newEvent",
          "type": "address"
        }
      ],
      "name": "addEvent",
      "outputs": [
        {
          "internalType": "bool",
          "name": "",
          "type": "bool"
        }
      ],
      "stateMutability": "nonpayable",
      "type": "function"
    },
    {
      "inputs": [
        {
          "internalType": "address",
          "name": "eventAddress",
          "type": "address"
        },
        {
          "internalType": "uint256",
          "name": "ticketId",
          "type": "uint256"
        }
      ],
      "name": "expendTicket",
      "outputs": [
        {
          "internalType": "bool",
          "name": "",
          "type": "bool"
        }
      ],
      "stateMutability": "nonpayable",
      "type": "function"
    },
    {
      "inputs": [
        {
          "internalType": "address",
          "name": "eventAddress",
          "type": "address"
        }
      ],
      "name": "verify",
      "outputs": [
        {
          "internalType": "bool",
          "name": "",
          "type": "bool"
        }
      ],
      "stateMutability": "view",
      "type": "function"
    }
  ],
  "bytecode": {
    "object": "0x608060405234801561001057600080fd5b50610204806100206000396000f3fe608060405234801561001057600080fd5b50600436106100415760003560e01c806332cef1e21461004657806363a9c3d71461006d578063c7ae745114610099575b600080fd5b610059610054366004610182565b6100cf565b604051901515815260200160405180910390f35b61005961007b3660046101ac565b6001600160a01b031660009081526020819052604090205460ff1690565b6100596100a73660046101ac565b6001600160a01b03166000908152602081905260409020805460ff1916600190811790915590565b6001600160a01b03821660009081526020819052604081205460ff166101325760405162461bcd60e51b8152602060048201526014602482015273115d995b9d08191bd95cc81b9bdd08195e1a5cdd60621b604482015260640160405180910390fd5b506001600160a01b03919091166000908152600160208181526040808420948452939052919020805460ff19168217905590565b80356001600160a01b038116811461017d57600080fd5b919050565b6000806040838503121561019557600080fd5b61019e83610166565b946020939093013593505050565b6000602082840312156101be57600080fd5b6101c782610166565b939250505056fea2646970667358221220b4f615b01a0c1a564d6423d938b113285c66fdbfc086c894a67c51c318ee7ac864736f6c63430008110033",
    "linkReferences": {}
  },
  "methodIdentifiers": {
    "addEvent(address)": "c7ae7451",
    "expendTicket(address,uint256)": "32cef1e2",
    "verify(address)": "63a9c3d7"
  },
  "id": 13
}