{
  "abi": [
    {
      "inputs": [
        {
          "internalType": "address",
          "name": "eventAddress",
          "type": "address"
        }
      ],
      "name": "verify",
      "outputs": [
        {
          "internalType": "bool",
          "name": "",
          "type": "bool"
        }
      ],
      "stateMutability": "view",
      "type": "function"
    }
  ],
  "bytecode": {
    "object": "0x608060405234801561001057600080fd5b5060ce8061001f6000396000f3fe6080604052348015600f57600080fd5b506004361060285760003560e01c806363a9c3d714602d575b600080fd5b60566038366004606a565b6001600160a01b031660009081526020819052604090205460ff1690565b604051901515815260200160405180910390f35b600060208284031215607b57600080fd5b81356001600160a01b0381168114609157600080fd5b939250505056fea26469706673582212204df49ff1ae7c7a81808e538efdabb8a89ac3a4298053bf1c80d8caaf5bcf2bfd64736f6c63430008110033",
    "linkReferences": {}
  },
  "methodIdentifiers": {
    "verify(address)": "63a9c3d7"
  },
  "id": 17
}