{
  "abi": [
    {
      "inputs": [
        {
          "internalType": "address",
          "name": "tokenAddress",
          "type": "address"
        }
      ],
      "name": "addEvent",
      "outputs": [],
      "stateMutability": "nonpayable",
      "type": "function"
    },
    {
      "inputs": [
        {
          "internalType": "address",
          "name": "",
          "type": "address"
        }
      ],
      "name": "events",
      "outputs": [
        {
          "internalType": "bool",
          "name": "",
          "type": "bool"
        }
      ],
      "stateMutability": "view",
      "type": "function"
    },
    {
      "inputs": [
        {
          "internalType": "address",
          "name": "tokenAddress",
          "type": "address"
        },
        {
          "internalType": "uint256",
          "name": "tokenID",
          "type": "uint256"
        }
      ],
      "name": "expendTicket",
      "outputs": [],
      "stateMutability": "nonpayable",
      "type": "function"
    },
    {
      "inputs": [
        {
          "internalType": "address",
          "name": "",
          "type": "address"
        },
        {
          "internalType": "uint256",
          "name": "",
          "type": "uint256"
        }
      ],
      "name": "expended",
      "outputs": [
        {
          "internalType": "bool",
          "name": "",
          "type": "bool"
        }
      ],
      "stateMutability": "view",
      "type": "function"
    },
    {
      "inputs": [
        {
          "internalType": "address",
          "name": "tokenAddress",
          "type": "address"
        }
      ],
      "name": "verify",
      "outputs": [
        {
          "internalType": "bool",
          "name": "",
          "type": "bool"
        }
      ],
      "stateMutability": "view",
      "type": "function"
    }
  ],
  "bytecode": {
    "object": "0x608060405234801561001057600080fd5b50610398806100206000396000f3fe608060405234801561001057600080fd5b50600436106100575760003560e01c80633194bfe11461005c57806332cef1e21461009357806363a9c3d7146100a8578063c1627721146100d4578063c7ae745114610102575b600080fd5b61007f61006a3660046102f5565b60006020819052908152604090205460ff1681565b604051901515815260200160405180910390f35b6100a66100a1366004610319565b610134565b005b61007f6100b63660046102f5565b6001600160a01b031660009081526020819052604090205460ff1690565b61007f6100e2366004610319565b600160209081526000928352604080842090915290825290205460ff1681565b6100a66101103660046102f5565b6001600160a01b03166000908152602081905260409020805460ff19166001179055565b6001600160a01b03821660009081526020819052604090205460ff166101905760405162461bcd60e51b815260206004820152600c60248201526b139bdd08185b88195d995b9d60a21b60448201526064015b60405180910390fd5b6040516331a9108f60e11b815260048101829052829033906001600160a01b03831690636352211e90602401602060405180830381865afa1580156101d9573d6000803e3d6000fd5b505050506040513d601f19601f820116820180604052508101906101fd9190610345565b6001600160a01b0316146102435760405162461bcd60e51b815260206004820152600d60248201526c2737ba103a34329037bbb732b960991b6044820152606401610187565b6001600160a01b038316600090815260016020908152604080832085845290915290205460ff16156102aa5760405162461bcd60e51b815260206004820152601060248201526f105b1c9958591e48195e1c195b99195960821b6044820152606401610187565b506001600160a01b039091166000908152600160208181526040808420948452939052919020805460ff19169091179055565b6001600160a01b03811681146102f257600080fd5b50565b60006020828403121561030757600080fd5b8135610312816102dd565b9392505050565b6000806040838503121561032c57600080fd5b8235610337816102dd565b946020939093013593505050565b60006020828403121561035757600080fd5b8151610312816102dd56fea2646970667358221220c2feaab30b145739f4e085483ae6b59a70e81a7d36605c9106a1902c5386f1bb64736f6c634300080d0033",
    "linkReferences": {}
  },
  "methodIdentifiers": {
    "addEvent(address)": "c7ae7451",
    "events(address)": "3194bfe1",
    "expendTicket(address,uint256)": "32cef1e2",
    "expended(address,uint256)": "c1627721",
    "verify(address)": "63a9c3d7"
  },
  "id": 4
}