{
  "abi": [
    {
      "inputs": [
        {
          "internalType": "string",
          "name": "_name",
          "type": "string"
        },
        {
          "internalType": "string",
          "name": "_symbol",
          "type": "string"
        },
        {
          "internalType": "string",
          "name": "_initBaseURI",
          "type": "string"
        },
        {
          "internalType": "address",
          "name": "_mother",
          "type": "address"
        }
      ],
      "stateMutability": "nonpayable",
      "type": "constructor"
    },
    {
      "anonymous": false,
      "inputs": [
        {
          "indexed": true,
          "internalType": "address",
          "name": "owner",
          "type": "address"
        },
        {
          "indexed": true,
          "internalType": "address",
          "name": "approved",
          "type": "address"
        },
        {
          "indexed": true,
          "internalType": "uint256",
          "name": "tokenId",
          "type": "uint256"
        }
      ],
      "name": "Approval",
      "type": "event"
    },
    {
      "anonymous": false,
      "inputs": [
        {
          "indexed": true,
          "internalType": "address",
          "name": "owner",
          "type": "address"
        },
        {
          "indexed": true,
          "internalType": "address",
          "name": "operator",
          "type": "address"
        },
        {
          "indexed": false,
          "internalType": "bool",
          "name": "approved",
          "type": "bool"
        }
      ],
      "name": "ApprovalForAll",
      "type": "event"
    },
    {
      "anonymous": false,
      "inputs": [
        {
          "indexed": true,
          "internalType": "address",
          "name": "previousOwner",
          "type": "address"
        },
        {
          "indexed": true,
          "internalType": "address",
          "name": "newOwner",
          "type": "address"
        }
      ],
      "name": "OwnershipTransferred",
      "type": "event"
    },
    {
      "anonymous": false,
      "inputs": [
        {
          "indexed": true,
          "internalType": "address",
          "name": "from",
          "type": "address"
        },
        {
          "indexed": true,
          "internalType": "address",
          "name": "to",
          "type": "address"
        },
        {
          "indexed": true,
          "internalType": "uint256",
          "name": "tokenId",
          "type": "uint256"
        }
      ],
      "name": "Transfer",
      "type": "event"
    },
    {
      "inputs": [],
      "name": "_mother",
      "outputs": [
        {
          "internalType": "address",
          "name": "",
          "type": "address"
        }
      ],
      "stateMutability": "view",
      "type": "function"
    },
    {
      "inputs": [
        {
          "internalType": "address",
          "name": "to",
          "type": "address"
        },
        {
          "internalType": "uint256",
          "name": "tokenId",
          "type": "uint256"
        }
      ],
      "name": "approve",
      "outputs": [],
      "stateMutability": "nonpayable",
      "type": "function"
    },
    {
      "inputs": [
        {
          "internalType": "address",
          "name": "owner",
          "type": "address"
        }
      ],
      "name": "balanceOf",
      "outputs": [
        {
          "internalType": "uint256",
          "name": "",
          "type": "uint256"
        }
      ],
      "stateMutability": "view",
      "type": "function"
    },
    {
      "inputs": [],
      "name": "baseExtension",
      "outputs": [
        {
          "internalType": "string",
          "name": "",
          "type": "string"
        }
      ],
      "stateMutability": "view",
      "type": "function"
    },
    {
      "inputs": [
        {
          "internalType": "uint256",
          "name": "tokenId",
          "type": "uint256"
        }
      ],
      "name": "getApproved",
      "outputs": [
        {
          "internalType": "address",
          "name": "",
          "type": "address"
        }
      ],
      "stateMutability": "view",
      "type": "function"
    },
    {
      "inputs": [
        {
          "internalType": "address",
          "name": "owner",
          "type": "address"
        },
        {
          "internalType": "address",
          "name": "operator",
          "type": "address"
        }
      ],
      "name": "isApprovedForAll",
      "outputs": [
        {
          "internalType": "bool",
          "name": "",
          "type": "bool"
        }
      ],
      "stateMutability": "view",
      "type": "function"
    },
    {
      "inputs": [],
      "name": "maxMintAmount",
      "outputs": [
        {
          "internalType": "uint256",
          "name": "",
          "type": "uint256"
        }
      ],
      "stateMutability": "view",
      "type": "function"
    },
    {
      "inputs": [],
      "name": "maxSupply",
      "outputs": [
        {
          "internalType": "uint256",
          "name": "",
          "type": "uint256"
        }
      ],
      "stateMutability": "view",
      "type": "function"
    },
    {
      "inputs": [
        {
          "internalType": "uint256",
          "name": "_mintAmount",
          "type": "uint256"
        }
      ],
      "name": "mint",
      "outputs": [],
      "stateMutability": "payable",
      "type": "function"
    },
    {
      "inputs": [],
      "name": "name",
      "outputs": [
        {
          "internalType": "string",
          "name": "",
          "type": "string"
        }
      ],
      "stateMutability": "view",
      "type": "function"
    },
    {
      "inputs": [],
      "name": "owner",
      "outputs": [
        {
          "internalType": "address",
          "name": "",
          "type": "address"
        }
      ],
      "stateMutability": "view",
      "type": "function"
    },
    {
      "inputs": [
        {
          "internalType": "uint256",
          "name": "tokenId",
          "type": "uint256"
        }
      ],
      "name": "ownerOf",
      "outputs": [
        {
          "internalType": "address",
          "name": "",
          "type": "address"
        }
      ],
      "stateMutability": "view",
      "type": "function"
    },
    {
      "inputs": [
        {
          "internalType": "bool",
          "name": "_state",
          "type": "bool"
        }
      ],
      "name": "pause",
      "outputs": [],
      "stateMutability": "nonpayable",
      "type": "function"
    },
    {
      "inputs": [],
      "name": "paused",
      "outputs": [
        {
          "internalType": "bool",
          "name": "",
          "type": "bool"
        }
      ],
      "stateMutability": "view",
      "type": "function"
    },
    {
      "inputs": [],
      "name": "renounceOwnership",
      "outputs": [],
      "stateMutability": "nonpayable",
      "type": "function"
    },
    {
      "inputs": [
        {
          "internalType": "address",
          "name": "from",
          "type": "address"
        },
        {
          "internalType": "address",
          "name": "to",
          "type": "address"
        },
        {
          "internalType": "uint256",
          "name": "tokenId",
          "type": "uint256"
        }
      ],
      "name": "safeTransferFrom",
      "outputs": [],
      "stateMutability": "nonpayable",
      "type": "function"
    },
    {
      "inputs": [
        {
          "internalType": "address",
          "name": "from",
          "type": "address"
        },
        {
          "internalType": "address",
          "name": "to",
          "type": "address"
        },
        {
          "internalType": "uint256",
          "name": "tokenId",
          "type": "uint256"
        },
        {
          "internalType": "bytes",
          "name": "_data",
          "type": "bytes"
        }
      ],
      "name": "safeTransferFrom",
      "outputs": [],
      "stateMutability": "nonpayable",
      "type": "function"
    },
    {
      "inputs": [
        {
          "internalType": "address",
          "name": "operator",
          "type": "address"
        },
        {
          "internalType": "bool",
          "name": "approved",
          "type": "bool"
        }
      ],
      "name": "setApprovalForAll",
      "outputs": [],
      "stateMutability": "nonpayable",
      "type": "function"
    },
    {
      "inputs": [
        {
          "internalType": "string",
          "name": "_newBaseExtension",
          "type": "string"
        }
      ],
      "name": "setBaseExtension",
      "outputs": [],
      "stateMutability": "nonpayable",
      "type": "function"
    },
    {
      "inputs": [
        {
          "internalType": "string",
          "name": "_newBaseURI",
          "type": "string"
        }
      ],
      "name": "setBaseURI",
      "outputs": [],
      "stateMutability": "nonpayable",
      "type": "function"
    },
    {
      "inputs": [
        {
          "internalType": "uint256",
          "name": "_newmaxMintAmount",
          "type": "uint256"
        }
      ],
      "name": "setmaxMintAmount",
      "outputs": [],
      "stateMutability": "nonpayable",
      "type": "function"
    },
    {
      "inputs": [
        {
          "internalType": "bytes4",
          "name": "interfaceId",
          "type": "bytes4"
        }
      ],
      "name": "supportsInterface",
      "outputs": [
        {
          "internalType": "bool",
          "name": "",
          "type": "bool"
        }
      ],
      "stateMutability": "view",
      "type": "function"
    },
    {
      "inputs": [],
      "name": "symbol",
      "outputs": [
        {
          "internalType": "string",
          "name": "",
          "type": "string"
        }
      ],
      "stateMutability": "view",
      "type": "function"
    },
    {
      "inputs": [
        {
          "internalType": "uint256",
          "name": "index",
          "type": "uint256"
        }
      ],
      "name": "tokenByIndex",
      "outputs": [
        {
          "internalType": "uint256",
          "name": "",
          "type": "uint256"
        }
      ],
      "stateMutability": "view",
      "type": "function"
    },
    {
      "inputs": [
        {
          "internalType": "address",
          "name": "owner",
          "type": "address"
        },
        {
          "internalType": "uint256",
          "name": "index",
          "type": "uint256"
        }
      ],
      "name": "tokenOfOwnerByIndex",
      "outputs": [
        {
          "internalType": "uint256",
          "name": "",
          "type": "uint256"
        }
      ],
      "stateMutability": "view",
      "type": "function"
    },
    {
      "inputs": [
        {
          "internalType": "uint256",
          "name": "tokenId",
          "type": "uint256"
        }
      ],
      "name": "tokenURI",
      "outputs": [
        {
          "internalType": "string",
          "name": "",
          "type": "string"
        }
      ],
      "stateMutability": "view",
      "type": "function"
    },
    {
      "inputs": [],
      "name": "totalSupply",
      "outputs": [
        {
          "internalType": "uint256",
          "name": "",
          "type": "uint256"
        }
      ],
      "stateMutability": "view",
      "type": "function"
    },
    {
      "inputs": [
        {
          "internalType": "address",
          "name": "from",
          "type": "address"
        },
        {
          "internalType": "address",
          "name": "to",
          "type": "address"
        },
        {
          "internalType": "uint256",
          "name": "tokenId",
          "type": "uint256"
        }
      ],
      "name": "transferFrom",
      "outputs": [],
      "stateMutability": "nonpayable",
      "type": "function"
    },
    {
      "inputs": [
        {
          "internalType": "address",
          "name": "newOwner",
          "type": "address"
        }
      ],
      "name": "transferOwnership",
      "outputs": [],
      "stateMutability": "nonpayable",
      "type": "function"
    },
    {
      "inputs": [
        {
          "internalType": "address",
          "name": "_owner",
          "type": "address"
        }
      ],
      "name": "walletOfOwner",
      "outputs": [
        {
          "internalType": "uint256[]",
          "name": "",
          "type": "uint256[]"
        }
      ],
      "stateMutability": "view",
      "type": "function"
    },
    {
      "inputs": [],
      "name": "withdraw",
      "outputs": [],
      "stateMutability": "payable",
      "type": "function"
    }
  ],
  "bytecode": {
    "object": "0x60c06040526005608090815264173539b7b760d91b60a052600e906200002690826200023e565b50600a600f8190556010556011805460ff191690553480156200004857600080fd5b5060405162002653380380620026538339810160408190526200006b91620003b9565b83838260006200007c84826200023e565b5060016200008b83826200023e565b50600280546001600160a01b0319166001600160a01b039290921691909117905550620000c19050620000bb3390565b620000d6565b620000cc8262000128565b505050506200046c565b600c80546001600160a01b038381166001600160a01b0319831681179093556040519116919082907f8be0079c531659141344cd1fd0a4f28419497f9722a3daafe3b4186f6b6457e090600090a35050565b600c546001600160a01b03163314620001875760405162461bcd60e51b815260206004820181905260248201527f4f776e61626c653a2063616c6c6572206973206e6f7420746865206f776e6572604482015260640160405180910390fd5b600d6200019582826200023e565b5050565b634e487b7160e01b600052604160045260246000fd5b600181811c90821680620001c457607f821691505b602082108103620001e557634e487b7160e01b600052602260045260246000fd5b50919050565b601f8211156200023957600081815260208120601f850160051c81016020861015620002145750805b601f850160051c820191505b81811015620002355782815560010162000220565b5050505b505050565b81516001600160401b038111156200025a576200025a62000199565b62000272816200026b8454620001af565b84620001eb565b602080601f831160018114620002aa5760008415620002915750858301515b600019600386901b1c1916600185901b17855562000235565b600085815260208120601f198616915b82811015620002db57888601518255948401946001909101908401620002ba565b5085821015620002fa5787850151600019600388901b60f8161c191681555b5050505050600190811b01905550565b600082601f8301126200031c57600080fd5b81516001600160401b038082111562000339576200033962000199565b604051601f8301601f19908116603f0116810190828211818310171562000364576200036462000199565b816040528381526020925086838588010111156200038157600080fd5b600091505b83821015620003a5578582018301518183018401529082019062000386565b600093810190920192909252949350505050565b60008060008060808587031215620003d057600080fd5b84516001600160401b0380821115620003e857600080fd5b620003f6888389016200030a565b955060208701519150808211156200040d57600080fd5b6200041b888389016200030a565b945060408701519150808211156200043257600080fd5b5062000441878288016200030a565b606087015190935090506001600160a01b03811681146200046157600080fd5b939692955090935050565b6121d7806200047c6000396000f3fe6080604052600436106101d85760003560e01c80635c975abb11610102578063a22cb46511610095578063d5abeb0111610064578063d5abeb0114610522578063da3ef23f14610538578063e985e9c514610558578063f2fde38b146105a157600080fd5b8063a22cb465146104ad578063b88d4fde146104cd578063c6682862146104ed578063c87b56dd1461050257600080fd5b80637f00c7a6116100d15780637f00c7a6146104475780638da5cb5b1461046757806395d89b4114610485578063a0712d681461049a57600080fd5b80635c975abb146103d85780636352211e146103f257806370a0823114610412578063715018a61461043257600080fd5b8063239c70ae1161017a57806342842e0e1161014957806342842e0e1461034b578063438b63001461036b5780634f6ccce71461039857806355f804b3146103b857600080fd5b8063239c70ae146102ed57806323b872dd146103035780632f745c59146103235780633ccfd60b1461034357600080fd5b8063081812fc116101b6578063081812fc14610256578063095ea7b31461028e5780630a652656146102ae57806318160ddd146102ce57600080fd5b806301ffc9a7146101dd57806302329a291461021257806306fdde0314610234575b600080fd5b3480156101e957600080fd5b506101fd6101f8366004611a75565b6105c1565b60405190151581526020015b60405180910390f35b34801561021e57600080fd5b5061023261022d366004611aa7565b6105ec565b005b34801561024057600080fd5b50610249610632565b6040516102099190611b12565b34801561026257600080fd5b50610276610271366004611b25565b6106c4565b6040516001600160a01b039091168152602001610209565b34801561029a57600080fd5b506102326102a9366004611b55565b610759565b3480156102ba57600080fd5b50600254610276906001600160a01b031681565b3480156102da57600080fd5b50600a545b604051908152602001610209565b3480156102f957600080fd5b506102df60105481565b34801561030f57600080fd5b5061023261031e366004611b7f565b61086e565b34801561032f57600080fd5b506102df61033e366004611b55565b61089f565b610232610935565b34801561035757600080fd5b50610232610366366004611b7f565b6109d3565b34801561037757600080fd5b5061038b610386366004611bbb565b6109ee565b6040516102099190611bd6565b3480156103a457600080fd5b506102df6103b3366004611b25565b610a90565b3480156103c457600080fd5b506102326103d3366004611ca6565b610b23565b3480156103e457600080fd5b506011546101fd9060ff1681565b3480156103fe57600080fd5b5061027661040d366004611b25565b610b5d565b34801561041e57600080fd5b506102df61042d366004611bbb565b610bd4565b34801561043e57600080fd5b50610232610c5b565b34801561045357600080fd5b50610232610462366004611b25565b610c91565b34801561047357600080fd5b50600c546001600160a01b0316610276565b34801561049157600080fd5b50610249610cc0565b6102326104a8366004611b25565b610ccf565b3480156104b957600080fd5b506102326104c8366004611cef565b610d50565b3480156104d957600080fd5b506102326104e8366004611d22565b610e14565b3480156104f957600080fd5b50610249610e4c565b34801561050e57600080fd5b5061024961051d366004611b25565b610eda565b34801561052e57600080fd5b506102df600f5481565b34801561054457600080fd5b50610232610553366004611ca6565b610fb8565b34801561056457600080fd5b506101fd610573366004611d9e565b6001600160a01b03918216600090815260076020908152604080832093909416825291909152205460ff1690565b3480156105ad57600080fd5b506102326105bc366004611bbb565b610fee565b60006001600160e01b0319821663780e9d6360e01b14806105e657506105e682611086565b92915050565b600c546001600160a01b0316331461061f5760405162461bcd60e51b815260040161061690611dc8565b60405180910390fd5b6011805460ff1916911515919091179055565b60606000805461064190611dfd565b80601f016020809104026020016040519081016040528092919081815260200182805461066d90611dfd565b80156106ba5780601f1061068f576101008083540402835291602001916106ba565b820191906000526020600020905b81548152906001019060200180831161069d57829003601f168201915b5050505050905090565b6000818152600360205260408120546001600160a01b031661073d5760405162461bcd60e51b815260206004820152602c60248201527f4552433732313a20617070726f76656420717565727920666f72206e6f6e657860448201526b34b9ba32b73a103a37b5b2b760a11b6064820152608401610616565b506000908152600660205260409020546001600160a01b031690565b600061076482610b5d565b9050806001600160a01b0316836001600160a01b0316036107d15760405162461bcd60e51b815260206004820152602160248201527f4552433732313a20617070726f76616c20746f2063757272656e74206f776e656044820152603960f91b6064820152608401610616565b336001600160a01b03821614806107ed57506107ed8133610573565b61085f5760405162461bcd60e51b815260206004820152603860248201527f4552433732313a20617070726f76652063616c6c6572206973206e6f74206f7760448201527f6e6572206e6f7220617070726f76656420666f7220616c6c00000000000000006064820152608401610616565b61086983836110d6565b505050565b6108783382611144565b6108945760405162461bcd60e51b815260040161061690611e37565b61086983838361123b565b60006108aa83610bd4565b821061090c5760405162461bcd60e51b815260206004820152602b60248201527f455243373231456e756d657261626c653a206f776e657220696e646578206f7560448201526a74206f6620626f756e647360a81b6064820152608401610616565b506001600160a01b03919091166000908152600860209081526040808320938352929052205490565b600c546001600160a01b0316331461095f5760405162461bcd60e51b815260040161061690611dc8565b6000610973600c546001600160a01b031690565b6001600160a01b03164760405160006040518083038185875af1925050503d80600081146109bd576040519150601f19603f3d011682016040523d82523d6000602084013e6109c2565b606091505b50509050806109d057600080fd5b50565b61086983838360405180602001604052806000815250610e14565b606060006109fb83610bd4565b905060008167ffffffffffffffff811115610a1857610a18611c1a565b604051908082528060200260200182016040528015610a41578160200160208202803683370190505b50905060005b82811015610a8857610a59858261089f565b828281518110610a6b57610a6b611e88565b602090810291909101015280610a8081611eb4565b915050610a47565b509392505050565b6000610a9b600a5490565b8210610afe5760405162461bcd60e51b815260206004820152602c60248201527f455243373231456e756d657261626c653a20676c6f62616c20696e646578206f60448201526b7574206f6620626f756e647360a01b6064820152608401610616565b600a8281548110610b1157610b11611e88565b90600052602060002001549050919050565b600c546001600160a01b03163314610b4d5760405162461bcd60e51b815260040161061690611dc8565b600d610b598282611f1b565b5050565b6000818152600360205260408120546001600160a01b0316806105e65760405162461bcd60e51b815260206004820152602960248201527f4552433732313a206f776e657220717565727920666f72206e6f6e657869737460448201526832b73a103a37b5b2b760b91b6064820152608401610616565b60006001600160a01b038216610c3f5760405162461bcd60e51b815260206004820152602a60248201527f4552433732313a2062616c616e636520717565727920666f7220746865207a65604482015269726f206164647265737360b01b6064820152608401610616565b506001600160a01b031660009081526004602052604090205490565b600c546001600160a01b03163314610c855760405162461bcd60e51b815260040161061690611dc8565b610c8f60006113e6565b565b600c546001600160a01b03163314610cbb5760405162461bcd60e51b815260040161061690611dc8565b601055565b60606001805461064190611dfd565b6000610cda600a5490565b60115490915060ff1615610ced57600080fd5b60008211610cfa57600080fd5b601054821115610d0957600080fd5b600f54610d168383611fdb565b1115610d2157600080fd5b60015b82811161086957610d3e33610d398385611fdb565b611438565b80610d4881611eb4565b915050610d24565b336001600160a01b03831603610da85760405162461bcd60e51b815260206004820152601960248201527f4552433732313a20617070726f766520746f2063616c6c6572000000000000006044820152606401610616565b3360008181526007602090815260408083206001600160a01b03871680855290835292819020805460ff191686151590811790915590519081529192917f17307eab39ab6107e8899845ad3d59bd9653f200f220920489ca2b5937696c31910160405180910390a35050565b610e1e3383611144565b610e3a5760405162461bcd60e51b815260040161061690611e37565b610e4684848484611452565b50505050565b600e8054610e5990611dfd565b80601f0160208091040260200160405190810160405280929190818152602001828054610e8590611dfd565b8015610ed25780601f10610ea757610100808354040283529160200191610ed2565b820191906000526020600020905b815481529060010190602001808311610eb557829003601f168201915b505050505081565b6000818152600360205260409020546060906001600160a01b0316610f595760405162461bcd60e51b815260206004820152602f60248201527f4552433732314d657461646174613a2055524920717565727920666f72206e6f60448201526e3732bc34b9ba32b73a103a37b5b2b760891b6064820152608401610616565b6000610f63611485565b90506000815111610f835760405180602001604052806000815250610fb1565b80610f8d84611494565b600e604051602001610fa193929190611fee565b6040516020818303038152906040525b9392505050565b600c546001600160a01b03163314610fe25760405162461bcd60e51b815260040161061690611dc8565b600e610b598282611f1b565b600c546001600160a01b031633146110185760405162461bcd60e51b815260040161061690611dc8565b6001600160a01b03811661107d5760405162461bcd60e51b815260206004820152602660248201527f4f776e61626c653a206e6577206f776e657220697320746865207a65726f206160448201526564647265737360d01b6064820152608401610616565b6109d0816113e6565b60006001600160e01b031982166380ac58cd60e01b14806110b757506001600160e01b03198216635b5e139f60e01b145b806105e657506301ffc9a760e01b6001600160e01b03198316146105e6565b600081815260066020526040902080546001600160a01b0319166001600160a01b038416908117909155819061110b82610b5d565b6001600160a01b03167f8c5be1e5ebec7d5bd14f71427d1e84f3dd0314c0f7b2291e5b200ac8c7c3b92560405160405180910390a45050565b6000818152600360205260408120546001600160a01b03166111bd5760405162461bcd60e51b815260206004820152602c60248201527f4552433732313a206f70657261746f7220717565727920666f72206e6f6e657860448201526b34b9ba32b73a103a37b5b2b760a11b6064820152608401610616565b60006111c883610b5d565b9050806001600160a01b0316846001600160a01b031614806112035750836001600160a01b03166111f8846106c4565b6001600160a01b0316145b8061123357506001600160a01b0380821660009081526007602090815260408083209388168352929052205460ff165b949350505050565b826001600160a01b031661124e82610b5d565b6001600160a01b0316146112b65760405162461bcd60e51b815260206004820152602960248201527f4552433732313a207472616e73666572206f6620746f6b656e2074686174206960448201526839903737ba1037bbb760b91b6064820152608401610616565b6001600160a01b0382166113185760405162461bcd60e51b8152602060048201526024808201527f4552433732313a207472616e7366657220746f20746865207a65726f206164646044820152637265737360e01b6064820152608401610616565b611323838383611595565b61132e6000826110d6565b6001600160a01b038316600090815260046020526040812080546001929061135790849061208e565b90915550506001600160a01b0382166000908152600460205260408120805460019290611385908490611fdb565b909155505060008181526003602052604080822080546001600160a01b0319166001600160a01b0386811691821790925591518493918716917fddf252ad1be2c89b69c2b068fc378daa952ba7f163c4a11628f55a4df523b3ef91a4505050565b600c80546001600160a01b038381166001600160a01b0319831681179093556040519116919082907f8be0079c531659141344cd1fd0a4f28419497f9722a3daafe3b4186f6b6457e090600090a35050565b610b5982826040518060200160405280600081525061164d565b61145d84848461123b565b61146984848484611680565b610e465760405162461bcd60e51b8152600401610616906120a1565b6060600d805461064190611dfd565b6060816000036114bb5750506040805180820190915260018152600360fc1b602082015290565b8160005b81156114e557806114cf81611eb4565b91506114de9050600a83612109565b91506114bf565b60008167ffffffffffffffff81111561150057611500611c1a565b6040519080825280601f01601f19166020018201604052801561152a576020820181803683370190505b5090505b84156112335761153f60018361208e565b915061154c600a8661211d565b611557906030611fdb565b60f81b81838151811061156c5761156c611e88565b60200101906001600160f81b031916908160001a90535061158e600a86612109565b945061152e565b6001600160a01b0383166115f0576115eb81600a80546000838152600b60205260408120829055600182018355919091527fc65a7bb8d6351c1cf70c95a316cc6a92839c986682d98bc35f958f4883f9d2a80155565b611613565b816001600160a01b0316836001600160a01b031614611613576116138382611781565b6001600160a01b03821661162a576108698161181e565b826001600160a01b0316826001600160a01b0316146108695761086982826118cd565b6116578383611911565b6116646000848484611680565b6108695760405162461bcd60e51b8152600401610616906120a1565b60006001600160a01b0384163b1561177657604051630a85bd0160e11b81526001600160a01b0385169063150b7a02906116c4903390899088908890600401612131565b6020604051808303816000875af19250505080156116ff575060408051601f3d908101601f191682019092526116fc9181019061216e565b60015b61175c573d80801561172d576040519150601f19603f3d011682016040523d82523d6000602084013e611732565b606091505b5080516000036117545760405162461bcd60e51b8152600401610616906120a1565b805181602001fd5b6001600160e01b031916630a85bd0160e11b149050611233565b506001949350505050565b6000600161178e84610bd4565b611798919061208e565b6000838152600960205260409020549091508082146117eb576001600160a01b03841660009081526008602090815260408083208584528252808320548484528184208190558352600990915290208190555b5060009182526009602090815260408084208490556001600160a01b039094168352600881528383209183525290812055565b600a546000906118309060019061208e565b6000838152600b6020526040812054600a805493945090928490811061185857611858611e88565b9060005260206000200154905080600a838154811061187957611879611e88565b6000918252602080832090910192909255828152600b9091526040808220849055858252812055600a8054806118b1576118b161218b565b6001900381819060005260206000200160009055905550505050565b60006118d883610bd4565b6001600160a01b039093166000908152600860209081526040808320868452825280832085905593825260099052919091209190915550565b6001600160a01b0382166119675760405162461bcd60e51b815260206004820181905260248201527f4552433732313a206d696e7420746f20746865207a65726f20616464726573736044820152606401610616565b6000818152600360205260409020546001600160a01b0316156119cc5760405162461bcd60e51b815260206004820152601c60248201527f4552433732313a20746f6b656e20616c7265616479206d696e746564000000006044820152606401610616565b6119d860008383611595565b6001600160a01b0382166000908152600460205260408120805460019290611a01908490611fdb565b909155505060008181526003602052604080822080546001600160a01b0319166001600160a01b03861690811790915590518392907fddf252ad1be2c89b69c2b068fc378daa952ba7f163c4a11628f55a4df523b3ef908290a45050565b6001600160e01b0319811681146109d057600080fd5b600060208284031215611a8757600080fd5b8135610fb181611a5f565b80358015158114611aa257600080fd5b919050565b600060208284031215611ab957600080fd5b610fb182611a92565b60005b83811015611add578181015183820152602001611ac5565b50506000910152565b60008151808452611afe816020860160208601611ac2565b601f01601f19169290920160200192915050565b602081526000610fb16020830184611ae6565b600060208284031215611b3757600080fd5b5035919050565b80356001600160a01b0381168114611aa257600080fd5b60008060408385031215611b6857600080fd5b611b7183611b3e565b946020939093013593505050565b600080600060608486031215611b9457600080fd5b611b9d84611b3e565b9250611bab60208501611b3e565b9150604084013590509250925092565b600060208284031215611bcd57600080fd5b610fb182611b3e565b6020808252825182820181905260009190848201906040850190845b81811015611c0e57835183529284019291840191600101611bf2565b50909695505050505050565b634e487b7160e01b600052604160045260246000fd5b600067ffffffffffffffff80841115611c4b57611c4b611c1a565b604051601f8501601f19908116603f01168101908282118183101715611c7357611c73611c1a565b81604052809350858152868686011115611c8c57600080fd5b858560208301376000602087830101525050509392505050565b600060208284031215611cb857600080fd5b813567ffffffffffffffff811115611ccf57600080fd5b8201601f81018413611ce057600080fd5b61123384823560208401611c30565b60008060408385031215611d0257600080fd5b611d0b83611b3e565b9150611d1960208401611a92565b90509250929050565b60008060008060808587031215611d3857600080fd5b611d4185611b3e565b9350611d4f60208601611b3e565b925060408501359150606085013567ffffffffffffffff811115611d7257600080fd5b8501601f81018713611d8357600080fd5b611d9287823560208401611c30565b91505092959194509250565b60008060408385031215611db157600080fd5b611dba83611b3e565b9150611d1960208401611b3e565b6020808252818101527f4f776e61626c653a2063616c6c6572206973206e6f7420746865206f776e6572604082015260600190565b600181811c90821680611e1157607f821691505b602082108103611e3157634e487b7160e01b600052602260045260246000fd5b50919050565b60208082526031908201527f4552433732313a207472616e736665722063616c6c6572206973206e6f74206f6040820152701ddb995c881b9bdc88185c1c1c9bdd9959607a1b606082015260800190565b634e487b7160e01b600052603260045260246000fd5b634e487b7160e01b600052601160045260246000fd5b600060018201611ec657611ec6611e9e565b5060010190565b601f82111561086957600081815260208120601f850160051c81016020861015611ef45750805b601f850160051c820191505b81811015611f1357828155600101611f00565b505050505050565b815167ffffffffffffffff811115611f3557611f35611c1a565b611f4981611f438454611dfd565b84611ecd565b602080601f831160018114611f7e5760008415611f665750858301515b600019600386901b1c1916600185901b178555611f13565b600085815260208120601f198616915b82811015611fad57888601518255948401946001909101908401611f8e565b5085821015611fcb5787850151600019600388901b60f8161c191681555b5050505050600190811b01905550565b808201808211156105e6576105e6611e9e565b6000845160206120018285838a01611ac2565b8551918401916120148184848a01611ac2565b855492019160009061202581611dfd565b6001828116801561203d57600181146120525761207e565b60ff198416875282151583028701945061207e565b896000528560002060005b848110156120765781548982015290830190870161205d565b505082870194505b50929a9950505050505050505050565b818103818111156105e6576105e6611e9e565b60208082526032908201527f4552433732313a207472616e7366657220746f206e6f6e20455243373231526560408201527131b2b4bb32b91034b6b83632b6b2b73a32b960711b606082015260800190565b634e487b7160e01b600052601260045260246000fd5b600082612118576121186120f3565b500490565b60008261212c5761212c6120f3565b500690565b6001600160a01b038581168252841660208201526040810183905260806060820181905260009061216490830184611ae6565b9695505050505050565b60006020828403121561218057600080fd5b8151610fb181611a5f565b634e487b7160e01b600052603160045260246000fdfea2646970667358221220a31e40a02b4507a1023c037de28a38e21074839c83e63697d69f9a1cd33f801d64736f6c63430008110033",
    "linkReferences": {}
  },
  "methodIdentifiers": {
    "_mother()": "0a652656",
    "approve(address,uint256)": "095ea7b3",
    "balanceOf(address)": "70a08231",
    "baseExtension()": "c6682862",
    "getApproved(uint256)": "081812fc",
    "isApprovedForAll(address,address)": "e985e9c5",
    "maxMintAmount()": "239c70ae",
    "maxSupply()": "d5abeb01",
    "mint(uint256)": "a0712d68",
    "name()": "06fdde03",
    "owner()": "8da5cb5b",
    "ownerOf(uint256)": "6352211e",
    "pause(bool)": "02329a29",
    "paused()": "5c975abb",
    "renounceOwnership()": "715018a6",
    "safeTransferFrom(address,address,uint256)": "42842e0e",
    "safeTransferFrom(address,address,uint256,bytes)": "b88d4fde",
    "setApprovalForAll(address,bool)": "a22cb465",
    "setBaseExtension(string)": "da3ef23f",
    "setBaseURI(string)": "55f804b3",
    "setmaxMintAmount(uint256)": "7f00c7a6",
    "supportsInterface(bytes4)": "01ffc9a7",
    "symbol()": "95d89b41",
    "tokenByIndex(uint256)": "4f6ccce7",
    "tokenOfOwnerByIndex(address,uint256)": "2f745c59",
    "tokenURI(uint256)": "c87b56dd",
    "totalSupply()": "18160ddd",
    "transferFrom(address,address,uint256)": "23b872dd",
    "transferOwnership(address)": "f2fde38b",
    "walletOfOwner(address)": "438b6300",
    "withdraw()": "3ccfd60b"
  },
  "id": 0
}