{
  "abi": [
    {
      "inputs": [
        {
          "internalType": "string",
          "name": "_name",
          "type": "string"
        },
        {
          "internalType": "string",
          "name": "_symbol",
          "type": "string"
        },
        {
          "internalType": "string",
          "name": "_initBaseURI",
          "type": "string"
        },
        {
          "internalType": "address",
          "name": "_mother",
          "type": "address"
        }
      ],
      "stateMutability": "nonpayable",
      "type": "constructor"
    },
    {
      "anonymous": false,
      "inputs": [
        {
          "indexed": true,
          "internalType": "address",
          "name": "owner",
          "type": "address"
        },
        {
          "indexed": true,
          "internalType": "address",
          "name": "approved",
          "type": "address"
        },
        {
          "indexed": true,
          "internalType": "uint256",
          "name": "tokenId",
          "type": "uint256"
        }
      ],
      "name": "Approval",
      "type": "event"
    },
    {
      "anonymous": false,
      "inputs": [
        {
          "indexed": true,
          "internalType": "address",
          "name": "owner",
          "type": "address"
        },
        {
          "indexed": true,
          "internalType": "address",
          "name": "operator",
          "type": "address"
        },
        {
          "indexed": false,
          "internalType": "bool",
          "name": "approved",
          "type": "bool"
        }
      ],
      "name": "ApprovalForAll",
      "type": "event"
    },
    {
      "anonymous": false,
      "inputs": [
        {
          "indexed": true,
          "internalType": "address",
          "name": "previousOwner",
          "type": "address"
        },
        {
          "indexed": true,
          "internalType": "address",
          "name": "newOwner",
          "type": "address"
        }
      ],
      "name": "OwnershipTransferred",
      "type": "event"
    },
    {
      "anonymous": false,
      "inputs": [
        {
          "indexed": true,
          "internalType": "address",
          "name": "from",
          "type": "address"
        },
        {
          "indexed": true,
          "internalType": "address",
          "name": "to",
          "type": "address"
        },
        {
          "indexed": true,
          "internalType": "uint256",
          "name": "tokenId",
          "type": "uint256"
        }
      ],
      "name": "Transfer",
      "type": "event"
    },
    {
      "inputs": [],
      "name": "_mother",
      "outputs": [
        {
          "internalType": "address",
          "name": "",
          "type": "address"
        }
      ],
      "stateMutability": "view",
      "type": "function"
    },
    {
      "inputs": [
        {
          "internalType": "address",
          "name": "to",
          "type": "address"
        },
        {
          "internalType": "uint256",
          "name": "tokenId",
          "type": "uint256"
        }
      ],
      "name": "approve",
      "outputs": [],
      "stateMutability": "nonpayable",
      "type": "function"
    },
    {
      "inputs": [
        {
          "internalType": "address",
          "name": "owner",
          "type": "address"
        }
      ],
      "name": "balanceOf",
      "outputs": [
        {
          "internalType": "uint256",
          "name": "",
          "type": "uint256"
        }
      ],
      "stateMutability": "view",
      "type": "function"
    },
    {
      "inputs": [],
      "name": "baseExtension",
      "outputs": [
        {
          "internalType": "string",
          "name": "",
          "type": "string"
        }
      ],
      "stateMutability": "view",
      "type": "function"
    },
    {
      "inputs": [
        {
          "internalType": "uint256",
          "name": "tokenId",
          "type": "uint256"
        }
      ],
      "name": "getApproved",
      "outputs": [
        {
          "internalType": "address",
          "name": "",
          "type": "address"
        }
      ],
      "stateMutability": "view",
      "type": "function"
    },
    {
      "inputs": [
        {
          "internalType": "address",
          "name": "owner",
          "type": "address"
        },
        {
          "internalType": "address",
          "name": "operator",
          "type": "address"
        }
      ],
      "name": "isApprovedForAll",
      "outputs": [
        {
          "internalType": "bool",
          "name": "",
          "type": "bool"
        }
      ],
      "stateMutability": "view",
      "type": "function"
    },
    {
      "inputs": [],
      "name": "maxMintAmount",
      "outputs": [
        {
          "internalType": "uint256",
          "name": "",
          "type": "uint256"
        }
      ],
      "stateMutability": "view",
      "type": "function"
    },
    {
      "inputs": [],
      "name": "maxSupply",
      "outputs": [
        {
          "internalType": "uint256",
          "name": "",
          "type": "uint256"
        }
      ],
      "stateMutability": "view",
      "type": "function"
    },
    {
      "inputs": [
        {
          "internalType": "uint256",
          "name": "_mintAmount",
          "type": "uint256"
        }
      ],
      "name": "mint",
      "outputs": [],
      "stateMutability": "payable",
      "type": "function"
    },
    {
      "inputs": [],
      "name": "name",
      "outputs": [
        {
          "internalType": "string",
          "name": "",
          "type": "string"
        }
      ],
      "stateMutability": "view",
      "type": "function"
    },
    {
      "inputs": [],
      "name": "owner",
      "outputs": [
        {
          "internalType": "address",
          "name": "",
          "type": "address"
        }
      ],
      "stateMutability": "view",
      "type": "function"
    },
    {
      "inputs": [
        {
          "internalType": "uint256",
          "name": "tokenId",
          "type": "uint256"
        }
      ],
      "name": "ownerOf",
      "outputs": [
        {
          "internalType": "address",
          "name": "",
          "type": "address"
        }
      ],
      "stateMutability": "view",
      "type": "function"
    },
    {
      "inputs": [
        {
          "internalType": "bool",
          "name": "_state",
          "type": "bool"
        }
      ],
      "name": "pause",
      "outputs": [],
      "stateMutability": "nonpayable",
      "type": "function"
    },
    {
      "inputs": [],
      "name": "paused",
      "outputs": [
        {
          "internalType": "bool",
          "name": "",
          "type": "bool"
        }
      ],
      "stateMutability": "view",
      "type": "function"
    },
    {
      "inputs": [],
      "name": "renounceOwnership",
      "outputs": [],
      "stateMutability": "nonpayable",
      "type": "function"
    },
    {
      "inputs": [
        {
          "internalType": "address",
          "name": "from",
          "type": "address"
        },
        {
          "internalType": "address",
          "name": "to",
          "type": "address"
        },
        {
          "internalType": "uint256",
          "name": "tokenId",
          "type": "uint256"
        }
      ],
      "name": "safeTransferFrom",
      "outputs": [],
      "stateMutability": "nonpayable",
      "type": "function"
    },
    {
      "inputs": [
        {
          "internalType": "address",
          "name": "from",
          "type": "address"
        },
        {
          "internalType": "address",
          "name": "to",
          "type": "address"
        },
        {
          "internalType": "uint256",
          "name": "tokenId",
          "type": "uint256"
        },
        {
          "internalType": "bytes",
          "name": "_data",
          "type": "bytes"
        }
      ],
      "name": "safeTransferFrom",
      "outputs": [],
      "stateMutability": "nonpayable",
      "type": "function"
    },
    {
      "inputs": [
        {
          "internalType": "address",
          "name": "operator",
          "type": "address"
        },
        {
          "internalType": "bool",
          "name": "approved",
          "type": "bool"
        }
      ],
      "name": "setApprovalForAll",
      "outputs": [],
      "stateMutability": "nonpayable",
      "type": "function"
    },
    {
      "inputs": [
        {
          "internalType": "string",
          "name": "_newBaseExtension",
          "type": "string"
        }
      ],
      "name": "setBaseExtension",
      "outputs": [],
      "stateMutability": "nonpayable",
      "type": "function"
    },
    {
      "inputs": [
        {
          "internalType": "string",
          "name": "_newBaseURI",
          "type": "string"
        }
      ],
      "name": "setBaseURI",
      "outputs": [],
      "stateMutability": "nonpayable",
      "type": "function"
    },
    {
      "inputs": [
        {
          "internalType": "uint256",
          "name": "_newmaxMintAmount",
          "type": "uint256"
        }
      ],
      "name": "setmaxMintAmount",
      "outputs": [],
      "stateMutability": "nonpayable",
      "type": "function"
    },
    {
      "inputs": [
        {
          "internalType": "bytes4",
          "name": "interfaceId",
          "type": "bytes4"
        }
      ],
      "name": "supportsInterface",
      "outputs": [
        {
          "internalType": "bool",
          "name": "",
          "type": "bool"
        }
      ],
      "stateMutability": "view",
      "type": "function"
    },
    {
      "inputs": [],
      "name": "symbol",
      "outputs": [
        {
          "internalType": "string",
          "name": "",
          "type": "string"
        }
      ],
      "stateMutability": "view",
      "type": "function"
    },
    {
      "inputs": [
        {
          "internalType": "uint256",
          "name": "index",
          "type": "uint256"
        }
      ],
      "name": "tokenByIndex",
      "outputs": [
        {
          "internalType": "uint256",
          "name": "",
          "type": "uint256"
        }
      ],
      "stateMutability": "view",
      "type": "function"
    },
    {
      "inputs": [
        {
          "internalType": "address",
          "name": "owner",
          "type": "address"
        },
        {
          "internalType": "uint256",
          "name": "index",
          "type": "uint256"
        }
      ],
      "name": "tokenOfOwnerByIndex",
      "outputs": [
        {
          "internalType": "uint256",
          "name": "",
          "type": "uint256"
        }
      ],
      "stateMutability": "view",
      "type": "function"
    },
    {
      "inputs": [
        {
          "internalType": "uint256",
          "name": "tokenId",
          "type": "uint256"
        }
      ],
      "name": "tokenURI",
      "outputs": [
        {
          "internalType": "string",
          "name": "",
          "type": "string"
        }
      ],
      "stateMutability": "view",
      "type": "function"
    },
    {
      "inputs": [],
      "name": "totalSupply",
      "outputs": [
        {
          "internalType": "uint256",
          "name": "",
          "type": "uint256"
        }
      ],
      "stateMutability": "view",
      "type": "function"
    },
    {
      "inputs": [
        {
          "internalType": "address",
          "name": "from",
          "type": "address"
        },
        {
          "internalType": "address",
          "name": "to",
          "type": "address"
        },
        {
          "internalType": "uint256",
          "name": "tokenId",
          "type": "uint256"
        }
      ],
      "name": "transferFrom",
      "outputs": [],
      "stateMutability": "nonpayable",
      "type": "function"
    },
    {
      "inputs": [
        {
          "internalType": "address",
          "name": "newOwner",
          "type": "address"
        }
      ],
      "name": "transferOwnership",
      "outputs": [],
      "stateMutability": "nonpayable",
      "type": "function"
    },
    {
      "inputs": [
        {
          "internalType": "address",
          "name": "_owner",
          "type": "address"
        }
      ],
      "name": "walletOfOwner",
      "outputs": [
        {
          "internalType": "uint256[]",
          "name": "",
          "type": "uint256[]"
        }
      ],
      "stateMutability": "view",
      "type": "function"
    },
    {
      "inputs": [],
      "name": "withdraw",
      "outputs": [],
      "stateMutability": "payable",
      "type": "function"
    }
  ],
  "bytecode": {
    "object": "0x60c06040526005608081905264173539b7b760d91b60a09081526200002891600e9190620001b3565b50600a600f8190556010556011805460ff191690553480156200004a57600080fd5b50604051620025c9380380620025c98339810160408190526200006d9162000326565b838382826000908051906020019062000088929190620001b3565b5081516200009e906001906020850190620001b3565b50600280546001600160a01b0319166001600160a01b039290921691909117905550620000d49050620000ce3390565b620000e9565b620000df826200013b565b5050505062000415565b600c80546001600160a01b038381166001600160a01b0319831681179093556040519116919082907f8be0079c531659141344cd1fd0a4f28419497f9722a3daafe3b4186f6b6457e090600090a35050565b600c546001600160a01b031633146200019a5760405162461bcd60e51b815260206004820181905260248201527f4f776e61626c653a2063616c6c6572206973206e6f7420746865206f776e6572604482015260640160405180910390fd5b8051620001af90600d906020840190620001b3565b5050565b828054620001c190620003d9565b90600052602060002090601f016020900481019282620001e5576000855562000230565b82601f106200020057805160ff191683800117855562000230565b8280016001018555821562000230579182015b828111156200023057825182559160200191906001019062000213565b506200023e92915062000242565b5090565b5b808211156200023e576000815560010162000243565b634e487b7160e01b600052604160045260246000fd5b600082601f8301126200028157600080fd5b81516001600160401b03808211156200029e576200029e62000259565b604051601f8301601f19908116603f01168101908282118183101715620002c957620002c962000259565b81604052838152602092508683858801011115620002e657600080fd5b600091505b838210156200030a5785820183015181830184015290820190620002eb565b838211156200031c5760008385830101525b9695505050505050565b600080600080608085870312156200033d57600080fd5b84516001600160401b03808211156200035557600080fd5b62000363888389016200026f565b955060208701519150808211156200037a57600080fd5b62000388888389016200026f565b945060408701519150808211156200039f57600080fd5b50620003ae878288016200026f565b606087015190935090506001600160a01b0381168114620003ce57600080fd5b939692955090935050565b600181811c90821680620003ee57607f821691505b6020821081036200040f57634e487b7160e01b600052602260045260246000fd5b50919050565b6121a480620004256000396000f3fe6080604052600436106101d85760003560e01c80635c975abb11610102578063a22cb46511610095578063d5abeb0111610064578063d5abeb0114610522578063da3ef23f14610538578063e985e9c514610558578063f2fde38b146105a157600080fd5b8063a22cb465146104ad578063b88d4fde146104cd578063c6682862146104ed578063c87b56dd1461050257600080fd5b80637f00c7a6116100d15780637f00c7a6146104475780638da5cb5b1461046757806395d89b4114610485578063a0712d681461049a57600080fd5b80635c975abb146103d85780636352211e146103f257806370a0823114610412578063715018a61461043257600080fd5b8063239c70ae1161017a57806342842e0e1161014957806342842e0e1461034b578063438b63001461036b5780634f6ccce71461039857806355f804b3146103b857600080fd5b8063239c70ae146102ed57806323b872dd146103035780632f745c59146103235780633ccfd60b1461034357600080fd5b8063081812fc116101b6578063081812fc14610256578063095ea7b31461028e5780630a652656146102ae57806318160ddd146102ce57600080fd5b806301ffc9a7146101dd57806302329a291461021257806306fdde0314610234575b600080fd5b3480156101e957600080fd5b506101fd6101f8366004611b1c565b6105c1565b60405190151581526020015b60405180910390f35b34801561021e57600080fd5b5061023261022d366004611b4e565b6105ec565b005b34801561024057600080fd5b50610249610632565b6040516102099190611bc1565b34801561026257600080fd5b50610276610271366004611bd4565b6106c4565b6040516001600160a01b039091168152602001610209565b34801561029a57600080fd5b506102326102a9366004611c04565b610759565b3480156102ba57600080fd5b50600254610276906001600160a01b031681565b3480156102da57600080fd5b50600a545b604051908152602001610209565b3480156102f957600080fd5b506102df60105481565b34801561030f57600080fd5b5061023261031e366004611c2e565b61086e565b34801561032f57600080fd5b506102df61033e366004611c04565b61089f565b610232610935565b34801561035757600080fd5b50610232610366366004611c2e565b6109d3565b34801561037757600080fd5b5061038b610386366004611c6a565b6109ee565b6040516102099190611c85565b3480156103a457600080fd5b506102df6103b3366004611bd4565b610a90565b3480156103c457600080fd5b506102326103d3366004611d55565b610b23565b3480156103e457600080fd5b506011546101fd9060ff1681565b3480156103fe57600080fd5b5061027661040d366004611bd4565b610b64565b34801561041e57600080fd5b506102df61042d366004611c6a565b610bdb565b34801561043e57600080fd5b50610232610c62565b34801561045357600080fd5b50610232610462366004611bd4565b610c98565b34801561047357600080fd5b50600c546001600160a01b0316610276565b34801561049157600080fd5b50610249610cc7565b6102326104a8366004611bd4565b610cd6565b3480156104b957600080fd5b506102326104c8366004611d9e565b610d57565b3480156104d957600080fd5b506102326104e8366004611dd1565b610e1b565b3480156104f957600080fd5b50610249610e53565b34801561050e57600080fd5b5061024961051d366004611bd4565b610ee1565b34801561052e57600080fd5b506102df600f5481565b34801561054457600080fd5b50610232610553366004611d55565b610fbf565b34801561056457600080fd5b506101fd610573366004611e4d565b6001600160a01b03918216600090815260076020908152604080832093909416825291909152205460ff1690565b3480156105ad57600080fd5b506102326105bc366004611c6a565b610ffc565b60006001600160e01b0319821663780e9d6360e01b14806105e657506105e682611094565b92915050565b600c546001600160a01b0316331461061f5760405162461bcd60e51b815260040161061690611e77565b60405180910390fd5b6011805460ff1916911515919091179055565b60606000805461064190611eac565b80601f016020809104026020016040519081016040528092919081815260200182805461066d90611eac565b80156106ba5780601f1061068f576101008083540402835291602001916106ba565b820191906000526020600020905b81548152906001019060200180831161069d57829003601f168201915b5050505050905090565b6000818152600360205260408120546001600160a01b031661073d5760405162461bcd60e51b815260206004820152602c60248201527f4552433732313a20617070726f76656420717565727920666f72206e6f6e657860448201526b34b9ba32b73a103a37b5b2b760a11b6064820152608401610616565b506000908152600660205260409020546001600160a01b031690565b600061076482610b64565b9050806001600160a01b0316836001600160a01b0316036107d15760405162461bcd60e51b815260206004820152602160248201527f4552433732313a20617070726f76616c20746f2063757272656e74206f776e656044820152603960f91b6064820152608401610616565b336001600160a01b03821614806107ed57506107ed8133610573565b61085f5760405162461bcd60e51b815260206004820152603860248201527f4552433732313a20617070726f76652063616c6c6572206973206e6f74206f7760448201527f6e6572206e6f7220617070726f76656420666f7220616c6c00000000000000006064820152608401610616565b61086983836110e4565b505050565b6108783382611152565b6108945760405162461bcd60e51b815260040161061690611ee6565b610869838383611249565b60006108aa83610bdb565b821061090c5760405162461bcd60e51b815260206004820152602b60248201527f455243373231456e756d657261626c653a206f776e657220696e646578206f7560448201526a74206f6620626f756e647360a81b6064820152608401610616565b506001600160a01b03919091166000908152600860209081526040808320938352929052205490565b600c546001600160a01b0316331461095f5760405162461bcd60e51b815260040161061690611e77565b6000610973600c546001600160a01b031690565b6001600160a01b03164760405160006040518083038185875af1925050503d80600081146109bd576040519150601f19603f3d011682016040523d82523d6000602084013e6109c2565b606091505b50509050806109d057600080fd5b50565b61086983838360405180602001604052806000815250610e1b565b606060006109fb83610bdb565b905060008167ffffffffffffffff811115610a1857610a18611cc9565b604051908082528060200260200182016040528015610a41578160200160208202803683370190505b50905060005b82811015610a8857610a59858261089f565b828281518110610a6b57610a6b611f37565b602090810291909101015280610a8081611f63565b915050610a47565b509392505050565b6000610a9b600a5490565b8210610afe5760405162461bcd60e51b815260206004820152602c60248201527f455243373231456e756d657261626c653a20676c6f62616c20696e646578206f60448201526b7574206f6620626f756e647360a01b6064820152608401610616565b600a8281548110610b1157610b11611f37565b90600052602060002001549050919050565b600c546001600160a01b03163314610b4d5760405162461bcd60e51b815260040161061690611e77565b8051610b6090600d906020840190611a6d565b5050565b6000818152600360205260408120546001600160a01b0316806105e65760405162461bcd60e51b815260206004820152602960248201527f4552433732313a206f776e657220717565727920666f72206e6f6e657869737460448201526832b73a103a37b5b2b760b91b6064820152608401610616565b60006001600160a01b038216610c465760405162461bcd60e51b815260206004820152602a60248201527f4552433732313a2062616c616e636520717565727920666f7220746865207a65604482015269726f206164647265737360b01b6064820152608401610616565b506001600160a01b031660009081526004602052604090205490565b600c546001600160a01b03163314610c8c5760405162461bcd60e51b815260040161061690611e77565b610c9660006113f4565b565b600c546001600160a01b03163314610cc25760405162461bcd60e51b815260040161061690611e77565b601055565b60606001805461064190611eac565b6000610ce1600a5490565b60115490915060ff1615610cf457600080fd5b60008211610d0157600080fd5b601054821115610d1057600080fd5b600f54610d1d8383611f7c565b1115610d2857600080fd5b60015b82811161086957610d4533610d408385611f7c565b611446565b80610d4f81611f63565b915050610d2b565b336001600160a01b03831603610daf5760405162461bcd60e51b815260206004820152601960248201527f4552433732313a20617070726f766520746f2063616c6c6572000000000000006044820152606401610616565b3360008181526007602090815260408083206001600160a01b03871680855290835292819020805460ff191686151590811790915590519081529192917f17307eab39ab6107e8899845ad3d59bd9653f200f220920489ca2b5937696c31910160405180910390a35050565b610e253383611152565b610e415760405162461bcd60e51b815260040161061690611ee6565b610e4d84848484611460565b50505050565b600e8054610e6090611eac565b80601f0160208091040260200160405190810160405280929190818152602001828054610e8c90611eac565b8015610ed95780601f10610eae57610100808354040283529160200191610ed9565b820191906000526020600020905b815481529060010190602001808311610ebc57829003601f168201915b505050505081565b6000818152600360205260409020546060906001600160a01b0316610f605760405162461bcd60e51b815260206004820152602f60248201527f4552433732314d657461646174613a2055524920717565727920666f72206e6f60448201526e3732bc34b9ba32b73a103a37b5b2b760891b6064820152608401610616565b6000610f6a611493565b90506000815111610f8a5760405180602001604052806000815250610fb8565b80610f94846114a2565b600e604051602001610fa893929190611f94565b6040516020818303038152906040525b9392505050565b600c546001600160a01b03163314610fe95760405162461bcd60e51b815260040161061690611e77565b8051610b6090600e906020840190611a6d565b600c546001600160a01b031633146110265760405162461bcd60e51b815260040161061690611e77565b6001600160a01b03811661108b5760405162461bcd60e51b815260206004820152602660248201527f4f776e61626c653a206e6577206f776e657220697320746865207a65726f206160448201526564647265737360d01b6064820152608401610616565b6109d0816113f4565b60006001600160e01b031982166380ac58cd60e01b14806110c557506001600160e01b03198216635b5e139f60e01b145b806105e657506301ffc9a760e01b6001600160e01b03198316146105e6565b600081815260066020526040902080546001600160a01b0319166001600160a01b038416908117909155819061111982610b64565b6001600160a01b03167f8c5be1e5ebec7d5bd14f71427d1e84f3dd0314c0f7b2291e5b200ac8c7c3b92560405160405180910390a45050565b6000818152600360205260408120546001600160a01b03166111cb5760405162461bcd60e51b815260206004820152602c60248201527f4552433732313a206f70657261746f7220717565727920666f72206e6f6e657860448201526b34b9ba32b73a103a37b5b2b760a11b6064820152608401610616565b60006111d683610b64565b9050806001600160a01b0316846001600160a01b031614806112115750836001600160a01b0316611206846106c4565b6001600160a01b0316145b8061124157506001600160a01b0380821660009081526007602090815260408083209388168352929052205460ff165b949350505050565b826001600160a01b031661125c82610b64565b6001600160a01b0316146112c45760405162461bcd60e51b815260206004820152602960248201527f4552433732313a207472616e73666572206f6620746f6b656e2074686174206960448201526839903737ba1037bbb760b91b6064820152608401610616565b6001600160a01b0382166113265760405162461bcd60e51b8152602060048201526024808201527f4552433732313a207472616e7366657220746f20746865207a65726f206164646044820152637265737360e01b6064820152608401610616565b6113318383836115a3565b61133c6000826110e4565b6001600160a01b0383166000908152600460205260408120805460019290611365908490612057565b90915550506001600160a01b0382166000908152600460205260408120805460019290611393908490611f7c565b909155505060008181526003602052604080822080546001600160a01b0319166001600160a01b0386811691821790925591518493918716917fddf252ad1be2c89b69c2b068fc378daa952ba7f163c4a11628f55a4df523b3ef91a4505050565b600c80546001600160a01b038381166001600160a01b0319831681179093556040519116919082907f8be0079c531659141344cd1fd0a4f28419497f9722a3daafe3b4186f6b6457e090600090a35050565b610b6082826040518060200160405280600081525061165b565b61146b848484611249565b6114778484848461168e565b610e4d5760405162461bcd60e51b81526004016106169061206e565b6060600d805461064190611eac565b6060816000036114c95750506040805180820190915260018152600360fc1b602082015290565b8160005b81156114f357806114dd81611f63565b91506114ec9050600a836120d6565b91506114cd565b60008167ffffffffffffffff81111561150e5761150e611cc9565b6040519080825280601f01601f191660200182016040528015611538576020820181803683370190505b5090505b84156112415761154d600183612057565b915061155a600a866120ea565b611565906030611f7c565b60f81b81838151811061157a5761157a611f37565b60200101906001600160f81b031916908160001a90535061159c600a866120d6565b945061153c565b6001600160a01b0383166115fe576115f981600a80546000838152600b60205260408120829055600182018355919091527fc65a7bb8d6351c1cf70c95a316cc6a92839c986682d98bc35f958f4883f9d2a80155565b611621565b816001600160a01b0316836001600160a01b03161461162157611621838261178f565b6001600160a01b038216611638576108698161182c565b826001600160a01b0316826001600160a01b0316146108695761086982826118db565b611665838361191f565b611672600084848461168e565b6108695760405162461bcd60e51b81526004016106169061206e565b60006001600160a01b0384163b1561178457604051630a85bd0160e11b81526001600160a01b0385169063150b7a02906116d29033908990889088906004016120fe565b6020604051808303816000875af192505050801561170d575060408051601f3d908101601f1916820190925261170a9181019061213b565b60015b61176a573d80801561173b576040519150601f19603f3d011682016040523d82523d6000602084013e611740565b606091505b5080516000036117625760405162461bcd60e51b81526004016106169061206e565b805181602001fd5b6001600160e01b031916630a85bd0160e11b149050611241565b506001949350505050565b6000600161179c84610bdb565b6117a69190612057565b6000838152600960205260409020549091508082146117f9576001600160a01b03841660009081526008602090815260408083208584528252808320548484528184208190558352600990915290208190555b5060009182526009602090815260408084208490556001600160a01b039094168352600881528383209183525290812055565b600a5460009061183e90600190612057565b6000838152600b6020526040812054600a805493945090928490811061186657611866611f37565b9060005260206000200154905080600a838154811061188757611887611f37565b6000918252602080832090910192909255828152600b9091526040808220849055858252812055600a8054806118bf576118bf612158565b6001900381819060005260206000200160009055905550505050565b60006118e683610bdb565b6001600160a01b039093166000908152600860209081526040808320868452825280832085905593825260099052919091209190915550565b6001600160a01b0382166119755760405162461bcd60e51b815260206004820181905260248201527f4552433732313a206d696e7420746f20746865207a65726f20616464726573736044820152606401610616565b6000818152600360205260409020546001600160a01b0316156119da5760405162461bcd60e51b815260206004820152601c60248201527f4552433732313a20746f6b656e20616c7265616479206d696e746564000000006044820152606401610616565b6119e6600083836115a3565b6001600160a01b0382166000908152600460205260408120805460019290611a0f908490611f7c565b909155505060008181526003602052604080822080546001600160a01b0319166001600160a01b03861690811790915590518392907fddf252ad1be2c89b69c2b068fc378daa952ba7f163c4a11628f55a4df523b3ef908290a45050565b828054611a7990611eac565b90600052602060002090601f016020900481019282611a9b5760008555611ae1565b82601f10611ab457805160ff1916838001178555611ae1565b82800160010185558215611ae1579182015b82811115611ae1578251825591602001919060010190611ac6565b50611aed929150611af1565b5090565b5b80821115611aed5760008155600101611af2565b6001600160e01b0319811681146109d057600080fd5b600060208284031215611b2e57600080fd5b8135610fb881611b06565b80358015158114611b4957600080fd5b919050565b600060208284031215611b6057600080fd5b610fb882611b39565b60005b83811015611b84578181015183820152602001611b6c565b83811115610e4d5750506000910152565b60008151808452611bad816020860160208601611b69565b601f01601f19169290920160200192915050565b602081526000610fb86020830184611b95565b600060208284031215611be657600080fd5b5035919050565b80356001600160a01b0381168114611b4957600080fd5b60008060408385031215611c1757600080fd5b611c2083611bed565b946020939093013593505050565b600080600060608486031215611c4357600080fd5b611c4c84611bed565b9250611c5a60208501611bed565b9150604084013590509250925092565b600060208284031215611c7c57600080fd5b610fb882611bed565b6020808252825182820181905260009190848201906040850190845b81811015611cbd57835183529284019291840191600101611ca1565b50909695505050505050565b634e487b7160e01b600052604160045260246000fd5b600067ffffffffffffffff80841115611cfa57611cfa611cc9565b604051601f8501601f19908116603f01168101908282118183101715611d2257611d22611cc9565b81604052809350858152868686011115611d3b57600080fd5b858560208301376000602087830101525050509392505050565b600060208284031215611d6757600080fd5b813567ffffffffffffffff811115611d7e57600080fd5b8201601f81018413611d8f57600080fd5b61124184823560208401611cdf565b60008060408385031215611db157600080fd5b611dba83611bed565b9150611dc860208401611b39565b90509250929050565b60008060008060808587031215611de757600080fd5b611df085611bed565b9350611dfe60208601611bed565b925060408501359150606085013567ffffffffffffffff811115611e2157600080fd5b8501601f81018713611e3257600080fd5b611e4187823560208401611cdf565b91505092959194509250565b60008060408385031215611e6057600080fd5b611e6983611bed565b9150611dc860208401611bed565b6020808252818101527f4f776e61626c653a2063616c6c6572206973206e6f7420746865206f776e6572604082015260600190565b600181811c90821680611ec057607f821691505b602082108103611ee057634e487b7160e01b600052602260045260246000fd5b50919050565b60208082526031908201527f4552433732313a207472616e736665722063616c6c6572206973206e6f74206f6040820152701ddb995c881b9bdc88185c1c1c9bdd9959607a1b606082015260800190565b634e487b7160e01b600052603260045260246000fd5b634e487b7160e01b600052601160045260246000fd5b600060018201611f7557611f75611f4d565b5060010190565b60008219821115611f8f57611f8f611f4d565b500190565b600084516020611fa78285838a01611b69565b855191840191611fba8184848a01611b69565b8554920191600090600181811c9080831680611fd757607f831692505b8583108103611ff457634e487b7160e01b85526022600452602485fd5b808015612008576001811461201957612046565b60ff19851688528388019550612046565b60008b81526020902060005b8581101561203e5781548a820152908401908801612025565b505083880195505b50939b9a5050505050505050505050565b60008282101561206957612069611f4d565b500390565b60208082526032908201527f4552433732313a207472616e7366657220746f206e6f6e20455243373231526560408201527131b2b4bb32b91034b6b83632b6b2b73a32b960711b606082015260800190565b634e487b7160e01b600052601260045260246000fd5b6000826120e5576120e56120c0565b500490565b6000826120f9576120f96120c0565b500690565b6001600160a01b038581168252841660208201526040810183905260806060820181905260009061213190830184611b95565b9695505050505050565b60006020828403121561214d57600080fd5b8151610fb881611b06565b634e487b7160e01b600052603160045260246000fdfea2646970667358221220362535a4df0cfde73821babfadf1c3c3f681221ee5a61adb8e34b7aa767335aa64736f6c634300080d0033",
    "linkReferences": {}
  },
  "methodIdentifiers": {
    "_mother()": "0a652656",
    "approve(address,uint256)": "095ea7b3",
    "balanceOf(address)": "70a08231",
    "baseExtension()": "c6682862",
    "getApproved(uint256)": "081812fc",
    "isApprovedForAll(address,address)": "e985e9c5",
    "maxMintAmount()": "239c70ae",
    "maxSupply()": "d5abeb01",
    "mint(uint256)": "a0712d68",
    "name()": "06fdde03",
    "owner()": "8da5cb5b",
    "ownerOf(uint256)": "6352211e",
    "pause(bool)": "02329a29",
    "paused()": "5c975abb",
    "renounceOwnership()": "715018a6",
    "safeTransferFrom(address,address,uint256)": "42842e0e",
    "safeTransferFrom(address,address,uint256,bytes)": "b88d4fde",
    "setApprovalForAll(address,bool)": "a22cb465",
    "setBaseExtension(string)": "da3ef23f",
    "setBaseURI(string)": "55f804b3",
    "setmaxMintAmount(uint256)": "7f00c7a6",
    "supportsInterface(bytes4)": "01ffc9a7",
    "symbol()": "95d89b41",
    "tokenByIndex(uint256)": "4f6ccce7",
    "tokenOfOwnerByIndex(address,uint256)": "2f745c59",
    "tokenURI(uint256)": "c87b56dd",
    "totalSupply()": "18160ddd",
    "transferFrom(address,address,uint256)": "23b872dd",
    "transferOwnership(address)": "f2fde38b",
    "walletOfOwner(address)": "438b6300",
    "withdraw()": "3ccfd60b"
  },
  "id": 17
}